:020000040800F2
:1000000070050020C5000008752800089D20000824
:1000100000000000000000000000000000000000E0
:100020000000000000000000000000007B28000825
:100030000000000000000000792800086136000878
:10004000D700000800000000D7000008D700000813
:10005000D7000008D7000008D7000008D700000824
:1000600000000000D7000008D7000008D7000008F3
:10007000D7000008D7000008D700000800000000E3
:10008000D70000080000000000000000D7000008B2
:1000900000000000D7000008D7000008D7000008C3
:1000A00000000000D700000800000000D700000892
:1000B0000348854600F0A0F8004800470D3C0008C2
:1000C000700500200448804704480047FEE7FEE72B
:1000D000FEE7FEE7FEE7FEE7E5360008B1000008B0
:1000E00030B50B46014600202022012409E00D46D0
:1000F000D5409D4205D31D469540491B2546954058
:1001000040191546521E002DF1DC30BDF0B51FB46C
:100110000646002082B005464024019100901BE075
:10012000019922460F46304600F020F8049A059BBC
:10013000801A994110D310461946224600F04BF818
:10014000361A8F410197224601200021009F00F0BE
:1001500042F838184D4100902046641E0028DFDC2C
:10016000019B00982946324607B0F0BD10B5202A01
:1001700004DB0846203AD040002110BD0B46D34096
:10018000D0402024A21A91400843194610BD0346CE
:100190000B439B0703D009E008C9121F08C0042ABB
:1001A000FAD203E00B780370401C491C521EF9D2AE
:1001B0007047D2B201E00270401C491EFBD270476A
:1001C0000022F6E710B513460A4604461946FFF723
:1001D000F0FF204610BD10B5202A04DB0146203A6E
:1001E0009140002010BD914020239C1A0346E3401B
:1001F0001943904010BD0000064C0125064E05E055
:10020000E36807CC2B430C3C98471034B442F7D337
:10021000FFF752FF4C3E00086C3E00081FB500215E
:1002200003910291FD21684601716420012301AA16
:10023000502100902A4800F0B7FC002802D0052089
:1002400000F0A0F96420012302AA51210090244863
:1002500000F0F4FB002802D0052000F093F9FE2006
:10026000694608716420012301AA502100901C48AE
:1002700000F09AFC002802D0052000F083F96420E9
:10028000012303AA51210090154800F0D7FB002854
:1002900002D0052000F076F96846007A71281DD159
:1002A0006846007B5D2819D100212A2000F03CF827
:1002B0007F21212000F038F87F21272000F034F83A
:1002C0000021282000F030F8FF21292000F02CF830
:1002D0002F211F2000F028F803F05DFC1FBD000057
:1002E0006000002001B582B06420012302AA5021E1
:1002F00000900C4800F058FC002802D0062000F0C6
:1003000041F96420012301AA51210090054800F021
:1003100095FB002802D0062000F034F968460079E9
:100320000EBD0000600000207CB504460D46684606
:10033000047145716420022301AA502100900448F1
:1003400000F032FC002802D0072000F01BF97CBD31
:100350006000002010B504462520005D002859D11A
:100360002C20005D002855D13B480078002814D18E
:100370002420005D4021084000280ED03648007837
:10038000401C35490870302221463448FFF7FFFEF3
:1003900000F068FA324908603CE02F4800780128F4
:1003A00028D12420005D40210840002807D12A4997
:1003B00008702B49086001202A4908702AE000F0E3
:1003C00051FA27490968401A7D210901884221D341
:1003D0000320207004206070002020710220E07053
:1003E00000F040FA204908601B480078401C1A4978
:1003F00008700FE01848007802280BD12420005D17
:1004000040210840002805D11349087000F02AFA5D
:1004100013490860207803281DD100F023FA104901
:100420000968401A1149884215D30C480078207099
:100430000A484078607009488078A07007480078C2
:1004400020700648007920710448C078E07000F000
:1004500009FA0549086010BD240000203C01002075
:10046000280000200E00002000000020A0BB0D008E
:1004700010B504462C20005D002838D01C480078B8
:1004800000280FD12420005DC007C00F002809D02C
:1004900000F0E8F91749086015480078401C144935
:1004A000087024E012480078012820D12420005D43
:1004B000C007C00F002804D10D4908700D4908601D
:1004C00015E000F0CFF90B490968401A7D210901B8
:1004D00088420CD30020A06200212C200155204628
:1004E00002F0CCF90020024908700249086010BDF2
:1004F0002C0000203000002010B5044600F0B2F9B6
:100500006169401A1C49884201D30020606100F0F3
:10051000A9F92169401A1849884204D300202061B2
:1005200001212520015500F09DF9A169401AE169DA
:10053000884201D30020A06100F094F90F490968B6
:10054000401A0F49884216D300F08CF90B49086015
:10055000A06A401CA062204602F090F98721490160
:10056000A06A884207D301212C2001550020A061F8
:10057000E0612070207110BD204E000000000020BE
:1005800080EE360072B601E000F078FEFCE770B550
:10059000044680210920C00600F054F9002811D13A
:1005A0000320FFF79FFE242108550020FFF79AFE45
:1005B0000546E807C00F00281FD000210846FFF7B6
:1005C000B3FE1AE02420005DC007C00F00280BD145
:1005D0002420005D02210840002805D12420005D70
:1005E00040210840002805D00320FFF77BFE24218E
:1005F000085502E00021242001552420005D002838
:1006000005D000F02FF9206100F02CF96061242062
:10061000005D002806D12520005D022802D10021BE
:100620002520015570BD000070B5044600F01AF990
:1006300006462546681C002802D0054800782D187B
:1006400000BF00F00FF9801BA842FAD370BD000074
:100650005800002078B503460A460021DFE0012655
:100660008E4014683440002C7ED01579AD07AD0F54
:10067000012D04D01579AD07AD0F022D18D1986862
:100680004E000325B5400646AE4330464E00D568C1
:10069000B54028439860586801258D400646AE4312
:1006A00030461026556835402D098D402843586046
:1006B0001579AD07AD0F032D0BD0D8684E0003257B
:1006C000B5400646AE4330464E009568B5402843D7
:1006D000D8601579AD07AD0F022D15D1CD08AE004C
:1006E0001D462035A8594D07EE0E0F25B54006468C
:1006F000AE4330464E07F60E1569B5402843CD0887
:10070000AD001E462036705118684E000325B540D6
:100710000646AE4330461579AD07AD0F4E00B540E5
:10072000284318600326360455683540002D75D0DF
:1007300000BF3E4DAD69012635433C4EB56135469F
:10074000AD69ED07ED0F009500BF00BF384D8E0875
:10075000B600A8598D072E0F0F25B5400646AE43AB
:1007600030460925ED0600E058E0AB4201D10025F6
:100770000FE0304DAB4201D101250AE02E4DAB42D6
:1007800001D1022505E02D4DAB4201D1032500E04A
:1007900005258E07360FB5402843254D8E08B60037
:1007A000A851274DA8680546A543284601263605C9
:1007B00055683540002D02D0054625432846204D7A
:1007C000A860E8680546A5432846012676055568D1
:1007D0003540002D02D0054625432846184DE860D7
:1007E00068680546A54328460126760455683540C5
:1007F000002D02D0054625432846114D6860286823
:100800000546A54328460126360455683540002D87
:1008100002D0054625432846094D2860491C156825
:10082000CD40002D00D01AE778BD00000010024036
:10083000080001400004004800080048000C00487F
:1008400000040140024613690B40002B01D0012037
:1008500000E000207047002A01D0816100E0816241
:1008600070470000014800687047000050000020F9
:1008700002464120805C20282FD100BF4020805CB0
:10088000012801D10220704701234020835400BF7A
:1008900024234120835410680068400840001368F6
:1008A00018601068006801231B03984313681860E0
:1008B0001068006808431368186010680068012316
:1008C00018431368186020234120835400BF00237D
:1008D0004020835400BF0020D5E70220D3E710B5A5
:1008E00002460B464120805C20282ED100BF4020CC
:1008F000805C012801D1022010BD012440208454D5
:1009000000BF24244120845410680068400840003F
:1009100014682060106801680F2424020846A04370
:100920000146180201431068016010680068012444
:1009300020431468206020244120845400BF0024F8
:100940004020845400BF0020D6E70220D4E70000F6
:1009500010B50446002C01D1012010BD4120005DDE
:10096000002805D1002140200155204600F08EFBD3
:10097000242141200155206800684008400021687A
:1009800008600F21090660688843216808612068B3
:1009900080680121C903884321688860E0680128D4
:1009A00006D10121C903A06808432168886005E0D9
:1009B00021218902A068084321688860E068022834
:1009C00007D1206840680121C902084321684860B6
:1009D00006E0206840680121C90288432168486018
:1009E0002068406814490843216848602068C0684E
:1009F0000121C90388432168C860616920690843EF
:100A0000A169090208432168C860216AE0690843B6
:100A10002168086020680068012108432168086097
:100A20000020606420214120015500202063002126
:100A300042200155002090E700800002FFB581B000
:100A4000044616461F464120005D202877D100BF8E
:100A50004020005D012802D1022005B0F0BD012137
:100A60004020015500BFFFF7FDFE05461923012276
:100A7000D1032046009501F079FC002801D0012027
:100A8000EBE7222141200155102142200155002091
:100A90006064666267856063608DFF280BD9012002
:100AA00020853F480090208DC2B20B052046029958
:100AB00001F03EFC0BE0608D208539480090208DD0
:100AC000C2B201235B062046029901F031FC43E0EB
:100AD0002A4620460A9901F089FC002801D001200D
:100AE000BBE72068406A616A0870606A401C606207
:100AF000208D401E2085608D401E6085608D002801
:100B00002AD0208D002827D1009500228021204660
:100B10000A9B01F02BFC002801D001209DE7608D8D
:100B2000FF280DD9FF20208500200090208DC2B223
:100B300001231B062046029901F0FAFB0CE02CE091
:100B4000608D208500200090208DC2B201235B06BD
:100B50002046029901F0ECFB608D0028B8D12A46AE
:100B600020460A9901F0B0FC002801D0012074E76A
:100B700020202168C861206840680A49084021682F
:100B8000486020214120015500214220015500BF2D
:100B90004020015500BF00205FE702205DE7000014
:100BA0000024008000E800FEFFB581B0044617462F
:100BB0004120005D20287DD100BF4020005D01283C
:100BC00002D1022005B0F0BD01214020015500BF37
:100BD000FFF748FE054619230122D1032046009560
:100BE00001F0C4FB002801D00120EBE721214120C6
:100BF000015510214220015500206064676204986D
:100C0000608500206063608DFF2803D9FF20208568
:100C10000E0503E0608D208501267606208D0028D4
:100C200017D0606A007821688862606A401C606240
:100C3000608D401E6085208D401E20853D480090BF
:100C4000208D401CC2B233462046029901F070FB51
:100C500008E038480090208DC2B233462046029901
:100C600001F066FB43E02A4620460A9901F05FFC4A
:100C7000002801D00120A5E7606A00782168886219
:100C8000606A401C6062608D401E6085208D401E41
:100C90002085608D00282AD0208D002827D100953E
:100CA0000022802120460A9B01F060FB002802D030
:100CB000012087E73CE0608DFF280CD9FF202085CC
:100CC00000200090208DC2B201231B06204602990D
:100CD00001F02EFB0BE0608D208500200090208D20
:100CE000C2B201235B062046029901F021FB608D10
:100CF0000028B8D12A4620460A9901F0E5FB0028D1
:100D000001D001205EE720202168C861206840688A
:100D100009490840216848602021412001550021EF
:100D20004220015500BF4020015500BF002049E787
:100D3000022047E70020008000E800FEFFB583B0F6
:100D400004460C9F0E9E4120005D20287ED1002F7E
:100D500002D00D98002805D10120400260640120D6
:100D600007B0F0BD00BF4020005D012801D1022086
:100D7000F6E701214020015500BFFFF773FD05464E
:100D800019230122D1032046009501F0EFFA002833
:100D900001D00120E4E722214120015540214220D9
:100DA00001550020606467620D98608500206063D3
:100DB00000960195204604A90EC901F039FA0028D1
:100DC00006D000BF00214020015500BF0120C7E729
:100DD000608DFF280CD90120208541480090208D8E
:100DE000C2B201231B062046049901F0A1FA0BE0D0
:100DF000608D20853A480090208DC2B201235B06A9
:100E00002046049901F094FA00BF334600220421E1
:100E10002046009501F0AAFA002801D001209FE7A2
:100E20002068406A616A0870606A401C6062208DB8
:100E3000401E2085608D401E6085608D00282BD06F
:100E4000208D002828D13346002200E045E0802193
:100E50002046009501F08AFA002801D001207FE7A2
:100E6000608DFF280CD90120208500200090208D66
:100E7000C2B201231B062046049901F059FA0BE087
:100E8000608D208500200090208DC2B201235B067A
:100E90002046049901F04CFA608D0028B5D12A460D
:100EA0003146204601F010FB002801D0012057E711
:100EB00020202168C861206840680A4908402168EC
:100EC000486020214120015500214220015500BFEA
:100ED0004020015500BF002042E7022040E700000B
:100EE0000024008000E800FEFFB583B004460C9F9C
:100EF0000E9E4120005D20287ED1002F02D00D984B
:100F0000002805D1012040026064012007B0F0BD37
:100F100000BF4020005D012801D10220F6E7012139
:100F20004020015500BFFFF79DFC05461923012213
:100F3000D1032046009501F019FA002801D00120C4
:100F4000E4E72121412001554021422001550020A4
:100F5000606467620D98608500206063009601956B
:100F6000204604A90EC901F0A3F9002806D000BF4D
:100F700000214020015500BF0120C7E7608DFF28F8
:100F80000CD9FF20208500200090208DC2B20123C3
:100F90001B062046049901F0CBF90BE0608D2085FB
:100FA00000200090208DC2B201235B0620460499E8
:100FB00001F0BEF900BF2A463146204601F0B7FADB
:100FC000002801D00120A1E7606A007821688862CA
:100FD000606A401C6062608D401E6085208D401EEE
:100FE0002085608D00282BD0208D002828D1334605
:100FF00000228021204600E043E0009501F0B6F990
:10100000002801D0012081E7608DFF280CD9FF2046
:10101000208500200090208DC2B201231B062046AF
:10102000049901F085F90BE0608D20850020009087
:10103000208DC2B201235B062046049901F078F9A5
:10104000608D0028B7D12A463146204601F03CFA8F
:10105000002801D0012059E720202168C8612068BC
:101060004068094908402168486020214120015515
:1010700000214220015500BF4020015500BF002043
:1010800044E7022042E7000000E800FE10B586B009
:101090000446142101A8FFF793F81B4920688842F1
:1010A0002FD100BF1948406901214904084317495D
:1010B000486108464069012149040840009000BF8A
:1010C00000BF0320400201901220029000200390F4
:1010D000032004900420059001A90920C006FFF711
:1010E000B9FA00BF0948C069012149050843074909
:1010F000C8610846C069012149050840009000BF49
:1011000000BF06B010BD00000054004000100240B7
:1011100070B50446002C01D1012070BD184821682B
:101120000860184821680860216860684860216884
:10113000A0688860FFF796FB05460CE0FFF792FB7E
:10114000401B272807D92068C0684007400F0028A7
:1011500001D00320E1E72068C0684007400F002865
:10116000ECD120680169E068814203D02168E06821
:10117000086102E00448216808600020CDE7000013
:10118000CCCC000055550000AAAA00000146024838
:101190000A68106000207047AAAA0000034800688F
:1011A0000349097840180149086070475000002041
:1011B0005800002010B50648006810210843044973
:1011C0000860032000F006F800F02EF8002010BDA3
:1011D0000020024070B50446104801787D20C00010
:1011E000FEF77EFF064631460D480068FEF778FFA1
:1011F000054600F0CFFC002801D0012070BD042C72
:1012000007D200222146501E00F02EF80548046047
:1012100001E00120F2E70020F0E700005800002084
:101220005C0000205400002008B500BF0D48806914
:10123000012108430B49886108468069C007C00F37
:10124000009000BF00BF00BF0846C0690904084302
:101250000449C8610846C06909040840009000BFFD
:1012600000BF08BD0010024070B504460D4616468A
:101270002946204602F044FC70BD000000BF00BFBC
:1012800000BF00BF00BFBFF34F8F00BF00BF00BF54
:1012900006480749C86000BF00BF00BFBFF34F8FBB
:1012A00000BF00BF00BF00BF00BFFDE70400FA059C
:1012B00000ED00E0F8B504460026002501210904F0
:1012C0002068084088427AD100274B48C06909034A
:1012D000084000280DD100BF4748C069084346496F
:1012E000C8610846C06909040840009000BF00BFFB
:1012F000012742480068FF2101310840002816D12B
:101300003E48006808433D490860FFF7ABFA0646CF
:1013100006E0FFF7A7FA801B642801D90320F8BD77
:1013200036480068FF21013108400028F1D03248DA
:10133000006A0321090208400546002D2DD060688F
:101340000840A84229D02C48006A884305462A480C
:10135000006A012109040843274908620846006A17
:101360000121090488432449086208460562E80708
:10137000C00F002811D0FFF775FA064607E0FFF707
:1013800071FA801B1E49884201D90320C7E71A4819
:10139000006A022108400028F1D01748006A0321A2
:1013A000090288436168084313490862012F05D187
:1013B0000846C069090488430F49C86100BF207806
:1013C000C007C00F002807D00B48006B80088000C2
:1013D000A1680843084908632021206808402028A4
:1013E00007D10548006B10218843E1680843024992
:1013F0000863002093E700000010024000700040E6
:101400008813000070B504460D46002C01D1012060
:1014100070BD52480068C007C00FA8420ED24F48A6
:1014200000684008400028434C49086008460068AE
:10143000C007C00FA84201D00120E9E702212068BF
:101440000840022814D1042120680840042807D14C
:1014500043484068072109028843401840494860D2
:101460003F484068F0218843A16808433C494860F0
:101470002078C007C00F00283BD06068012808D141
:1014800037480068012149040840002815D101208F
:10149000BEE76068022808D131480068012149068A
:1014A0000840002809D10120B2E72D480068022138
:1014B0000840002801D10120AAE729484068800897
:1014C00080006168084326494860FFF7CBF906466B
:1014D00007E0FFF7C7F9801B2249884201D90320A2
:1014E00096E71F4840680C210840616889008842DF
:1014F000EFD11A480068C007C00FA8420ED917489C
:101500000068400840002843144908600846006805
:10151000C007C00FA84201D0012079E7042120684C
:101520000840042808D10E48406807210902884372
:10153000E16808430A49486000F01AF80849496818
:10154000F02211400909084A515CC8400749086067
:101550000320FFF73FFE00205AE700000020024072
:101560000010024088130000343E00085C00002098
:10157000F8B50024002500270026002000901D4813
:1015800044680C20204000282DD0042802D00828D0
:1015900028D102E01848009028E00F208004204065
:1015A000800C16490E5C1348C06A0007000F1449EE
:1015B0000D5C0120000420400121090488420AD169
:1015C0002A4600230C481946FEF7A0FD314602F0DA
:1015D00071FA074604E00B48314602F06BFA074601
:1015E000009703E000BF0448009000BF00BF0098D0
:1015F000F8BD00000010024000127A00143E0008FE
:10160000243E000800093D00FEB50446002C01D12F
:101610000120FEBD2078C007C00F002871D0FC4813
:1016200040680C21084004280BD0F9484068084065
:10163000082812D1F6484068012109040840884270
:101640000BD1F348006801214904084000286BD001
:101650006068002868D10120DBE700BF60680128CE
:1016600007D1EB480068012109040843E8490860F4
:1016700031E0606800280ED1E548006801210904C6
:101680008843E349086008460068012189048843CB
:10169000DF4908601FE0606805280ED1DC4800685B
:1016A000012189040843DA490860084600680121DD
:1016B00009040843D64908600DE0D54800680121B7
:1016C00009048843D249086008460068012189045A
:1016D0008843CF49086000BF6068002812D0FFF738
:1016E000C1F8054606E0FFF7BDF8401B642801D9A4
:1016F00003208EE7C64800680121490408400028FD
:10170000F1D011E0FFF7AEF8054606E0FFF7AAF8C2
:10171000401B642801D903207BE7BD4800680121F4
:10172000490408400028F1D102212068084002281D
:1017300061D1B74840680C21084000280BD0B4485C
:101740004068084008281BD1B148406801210904BD
:101750000840002814D1AE48006802210840002843
:1017600004D0E068012801D0012052E7A8480068B1
:10177000F82188432169C9000843A54908603AE077
:10178000E068002820D0A248006801210843A04951
:101790000860FFF767F8054606E0FFF763F8401BAF
:1017A000022801D9032034E7994800680221084043
:1017B0000028F2D096480068F82188432169C900C2
:1017C00008439349086016E09148006840084000CB
:1017D0008F490860FFF746F8054606E0FFF742F834
:1017E000401B022801D9032013E789480068022121
:1017F00008400028F2D1082120680840082831D18B
:10180000E069002817D08248406A012108438049D6
:101810004862FFF727F8054606E0FFF723F8401B6C
:10182000022801D90320F4E67948406A02210840E1
:101830000028F2D016E07648406A4008400074491B
:101840004862FFF70FF8054606E0FFF70BF8401B6C
:10185000022801D90320DCE66D48406A02210840D5
:101860000028F2D1042120680840042873D1002008
:1018700001906748C0698906084000280ED100BF62
:101880006348C06908436249C8610846C0690904E1
:101890000840009000BF00BF012001905D48006833
:1018A000FF2101310840002816D15A48006808433A
:1018B00058490860FEF7D6FF054606E0FEF7D2FF5E
:1018C000401B642801D90320A3E652480068FF2189
:1018D000013108400028F1D000BFA068012806D1DE
:1018E0004B48006A01210843494908622BE0A0687F
:1018F00000280CD14648006A40084000444908626C
:101900000846006A04218843414908621BE0A06838
:1019100005280CD13E48006A042108433C4908626E
:101920000846006A01210843394908620BE038483B
:10193000006A40084000364908620846006A0421EF
:1019400088433349086200BFA068002813D0FEF71F
:1019500089FF054608E02BE0FEF784FF401B2E4977
:10196000884201D9032054E62948006A0221084030
:101970000028F1D011E0FEF775FF054607E0FEF7FD
:1019800071FF401B2449884201D9032041E62048C9
:10199000006A022108400028F1D10198012806D1EF
:1019A0001B48C0690121090788431949C86100BF64
:1019B000102120680840102860D1606901282DD1CD
:1019C0001348406B04210843114948630846406BA3
:1019D000012108430E494863FEF744FF054606E02F
:1019E000FEF740FF401B022801D9032011E60848FA
:1019F000406B022108400028F2D00548406BF821D6
:101A00008843A169C90008430149486336E00000E2
:101A10000010024000700040881300006069401D03
:101A200000280FD15A48406B042188435849486325
:101A30000846406BF8218843A169C900084354490E
:101A400048631BE05248406B0421084350494863F7
:101A50000846406B400840004863FEF703FF054618
:101A600006E0FEF7FFFE401B022801D90320D0E567
:101A70004748406B022108400028F2D1206A002824
:101A80004FD0434840680C210840082864D0206AA1
:101A9000022847D13E4800680121090688433C4995
:101AA0000860FEF7DFFE054606E0FEF7DBFE401BA2
:101AB000022801D90320ACE5354800680121490618
:101AC00008400028F1D100BF3148C06A0009000178
:101AD000E16A08432E49C862616AA06A08432C493A
:101AE00049683D221204914308432949486000BFD8
:101AF0000846006801210906084325490860FEF7E9
:101B0000B1FE054606E0FEF7ADFE401B022801D9F6
:101B100003207EE51E480068012149060840002890
:101B2000F1D033E01A4800680121090688431849BA
:101B30000860FEF797FE054606E0FEF793FE401BA1
:101B4000022801D9032064E51148006801214906F3
:101B500008400028F1D119E0206A012800D158E599
:101B60000B484668C76A012000043040616A884219
:101B70000AD13907090FE06A814205D10F2080049C
:101B80003040A16A884201D0012042E5002040E5B2
:101B90000010024070B504462546681E0949884277
:101BA00001D901200CE0681E074948610321081F84
:101BB00001F0A6FF00200449886107200861002089
:101BC00070BD0000FFFFFF0000E000E030B50246FE
:101BD0000B4600BF3C20805C012801D1022030BDB3
:101BE00001253C20855400BF02253D208554106806
:101BF00044681068816870252046A8430446186828
:101C00000443106844600D4D1068A84203D00C4D89
:101C10001068A84207D180250846A84301465868A5
:101C200001431068816001253D20855400BF0025D7
:101C30003C20855400BF0020D1E70000002C01406B
:101C40000004004010B50446002C01D1012010BD55
:101C50003D20005D002805D100213C200155204693
:101C600000F022F802213D200155211D206801F0DD
:101C70003BFD01214620015500BF3E2001553F207C
:101C80000155402001554120015500BF00BF4220B1
:101C9000015543200155442001554520015500BF01
:101CA0003D2001550020D2E708B5094A016891425C
:101CB0000DD100BF0749C96902221143054AD1610C
:101CC0001146C96902221140009100BF00BF08BD42
:101CD0000004004000100240F8B504460D46002004
:101CE000009000BF3C20005D012801D10220F8BD1A
:101CF00001213C20015500BF02213D2001552068F3
:101D000086687721304688430646FF21090230461F
:101D100088430646206886602868502834D00CDC4A
:101D2000202851D004DC00284CD0102852D14AE0A1
:101D300030284AD040284DD13AE060282ED0702873
:101D400007D001210903401A02D0401A42D10DE008
:101D500043E0EB686A68A968206801F026FD206806
:101D60008668772006432068866036E0EB686A68FC
:101D7000A968206801F019FD2068806801218903A5
:101D800008432168886028E0EA686968206801F0F3
:101D90005FFE5021206801F016FD1EE0EA686968C8
:101DA000206801F06EFE6021206801F00CFD14E057
:101DB000EA686968206801F04BFE4021206801F064
:101DC00002FD0AE000BF00BF00BF2968206801F0E3
:101DD000FAFC02E00120009000BF00BF01213D207D
:101DE000015500BF00213C20015500BF00987EE74F
:101DF00010B586B00446142101A8FEF7E1F9114997
:101E0000206888421CD100BF0F484069491308432D
:101E10000D49486108464069012149040840009085
:101E200000BF00BF402001900220029000200390DC
:101E300004900120059001A90920C006FEF70AFCC4
:101E400006B010BD0004004000100240F8B5044682
:101E50000D461646002700BF3C20005D012801D139
:101E60000220F8BD01213C20015500BF002E06D004
:101E7000042E1BD0082E33D00C2E62D147E0294609
:101E8000206801F0ADFC20688069082108432168C2
:101E900088612068806904218843216888612068FE
:101EA000806929690843216888614CE029462068D7
:101EB00001F0E4FC206880690121C902084321681F
:101EC00088612068806901218902884321688861CE
:101ED000206880692969090208432168886132E025
:101EE0002946206801F022FD2068C06908210843C6
:101EF0002168C8612068C069042188432168C861DD
:101F00002068C069296908432168C8611BE0294627
:101F1000206801F061FD2068C0690121C902084301
:101F20002168C8612068C06901218902884321684D
:101F3000C8612068C0692969090208432168C8612D
:101F400001E0012700BF00BF00BF00213C20015578
:101F500000BF384685E710B50446002C01D10120AA
:101F600010BD3D20005D002805D100213C20015519
:101F7000204600F022F802213D200155211D206855
:101F800001F0B2FB01214620015500BF3E20015562
:101F90003F200155402001554120015500BF00BFA1
:101FA000422001554320015544200155452001554B
:101FB00000BF3D2001550020D2E7704770B50446B0
:101FC0000D46002D02D13E20005D0BE0042D02D114
:101FD0003F20005D06E0082D02D14020005D01E0B9
:101FE0004120005D012801D0012070BD002D03D1EA
:101FF00002213E2001550EE0042D03D102213F2095
:10200000015508E0082D03D102214020015502E0CE
:1020100002214120015501222946206801F0B4FB2C
:102020001A492068884207D019492068884203D09D
:1020300018492068884201D1012000E000200028D2
:1020400006D02068406C0121C90308432168486418
:102050000E492068884203D00F49206888420CD17D
:10206000206880684607760F062E0CD0206800682E
:10207000012108432168086005E02068006801210B
:102080000843216808600020AFE70000002C0140F1
:1020900000440140004801400004004000BFFEE74A
:1020A00001688969022211404908002902D00021F3
:1020B0000268916201688969C907C90F012251400C
:1020C0005140002904D10168896911430268916176
:1020D00070470000F7B584B004460E460020039018
:1020E0002068876900250698029010203840102843
:1020F00054D12168C8613DE0701C00283AD0FEF739
:10210000B1FB0299401AB04201D8002E32D12068AA
:10211000406801218903084001904220005D009041
:102120002068806949000840C00B00280ED0491083
:10213000019888420AD00098202807D0206840687B
:10214000084321684860FEF78DFB02900AE0FEF725
:1021500089FB0299401A192804D92020054301203F
:10216000039006E02068806920210840400900288B
:10217000EDD000BF20688069202108404009002878
:1021800002D103980028B7D00398002802D120205C
:102190002168C861042005430120039020688769F5
:1021A000FF2001303840FF210131884206D1012053
:1021B000054300022168C8610120039001208002CC
:1021C000384001218902884206D108200543C00118
:1021D0002168C8610120039001204002384001219C
:1021E0004902884206D10220054300022168C861E5
:1021F000012003900398002815D02046FFF750FFD8
:10220000206840680949084021684860606C28439C
:10221000606420214120015500214220015500BF6A
:102220004020015500BF039807B0F0BD00E800FE54
:10223000FFB581B0044615461E460A9F1B48F2B200
:10224000002300902046029900F072F8394620469B
:102250000B9A00F06CF9002802D0012005B0F0BD07
:10226000012E03D1E8B22168886211E0FF2000024C
:102270002840001221688862394620460B9A00F0F7
:1022800056F9002801D00120E8E7E8B22168886209
:102290000B983B46002240210090204600F066F853
:1022A000002801D00120D9E70020D7E700200080D6
:1022B000FFB581B0044615461E460A9F1B48F2B280
:1022C000C30200902046029900F032F839462046B9
:1022D0000B9A00F02CF9002802D0012005B0F0BDC7
:1022E000012E03D1E8B22168886211E0FF200002CC
:1022F0002840001221688862394620460B9A00F077
:1023000016F9002801D00120E8E7E8B221688862C8
:102310000B983B46002280210090204600F026F8D2
:10232000002801D00120D9E70020D7E70020008055
:10233000F8B5069C8D05AD0D1604FF273F043E4001
:1023400035431D4325436D006D08009505686E6893
:10235000650D0127BF023D40034F3D43AE43009D45
:102360002E4305686E60F8BDFF63FF03F8B50446B1
:102370000D4617461E462CE031462046069AFFF7CA
:10238000A9FE002801D00120F8BD701C002820D033
:10239000FEF768FA0699401AB04201D8002E18D10B
:1023A000206880692840A84201D1012000E0002077
:1023B000B8420ED1606C2021084360644120015571
:1023C00000214220015500BF4020015500BF0120DF
:1023D000DAE7206880692840A84201D1012000E0A6
:1023E0000020B842C8D00020CEE70000F8B504466F
:1023F0000E46174600255AE03A4631462046FFF77A
:1024000069FE002800D0012520688069202108404D
:10241000400900282FD0002D2DD12068806904218B
:1024200008408008002803D0208D002800D000BF7D
:1024300020688069102108400009002819D0102068
:102440002168C8610420606420202168C861206878
:1024500040681C49084021684860202141200155FE
:1024600000214220015500BF4020015500BF012539
:1024700001E000206064FEF7F5F9C01BB04201D80E
:10248000002E14D1002D12D120688069042108404B
:10249000800800280BD1606C202108436064412033
:1024A000015500BF00214020015500BF01252068D3
:1024B0008069042108408008002801D1002D9BD0AC
:1024C0002846F8BD00E800FE70B504460D461646E5
:1024D00024E0324629462046FFF7FCFD002801D0C3
:1024E000012070BDFEF7BEF9801BA84201D8002D67
:1024F00014D12068806920210840400900280DD1AE
:10250000606C084360644120015500214220015560
:1025100000BF4020015500BF0120E2E7206880692C
:102520002021084040090028D3D00020D9E770B509
:1025300004460D46164628E0324629462046FFF757
:10254000C9FD002801D0012070BD681C00281CD0E6
:10255000FEF788F9801BA84201D8002D15D120680C
:10256000806902210840400800280ED1606C2021BB
:10257000084360644120015500214220015500BFFD
:102580004020015500BF0120DEE72068806902215C
:10259000084040080028CFD00020D5E710B590B003
:1025A000044610480078002801D010B010BD7D20EE
:1025B000C000302104AA0123009201910290002260
:1025C000A0210948FEF7BAFB002804D0054800788E
:1025D000401C04490870302204A92046FDF7D7FDAD
:1025E00000BFE2E70C0000206000002010B50446A8
:1025F000012020700220E07060700020A070207127
:10260000E060A060002125200155FEF72BF9206134
:10261000FEF728F96061074820620020A0610021D0
:1026200024200155252001550020A0622C200155B1
:1026300010BD0000E703000000B587B0142102A818
:10264000FDF7BEFD00BF35484069012189050843FB
:1026500032494861084640690121890508400190D6
:1026600000BF00BF00BF2D484069491108432B49F6
:10267000486108464069012149040840019000BFB3
:1026800000BF00BF2548406949000843234948610D
:1026900008464069012189040840019000BF00BF3D
:1026A000002203211E48FEF7D6F800223F21092010
:1026B000C006FEF7D0F8002202211A48FEF7CBF838
:1026C000032002900120039000200490059002A9AD
:1026D0001348FDF7BFFF3F20029001200390002028
:1026E0000490059002A90920C006FDF7B3FF8020E1
:1026F000029000200390049002A90920C006FDF773
:10270000A9FF022002900120039000200490059070
:1027100002A90448FDF79EFF07B000BD001002406B
:10272000001400480004004810B515481549086019
:10273000154848600021134881600121C1600021D3
:10274000016141618161C1610162FEF701F9002807
:1027500002D00220FDF716FF00210A48FEF788F894
:10276000002802D00220FDF70DFF00210548FEF7EA
:10277000B6F8002802D00220FDF704FF10BD0000CB
:1027800000540040600000200E09002010B50848E9
:10279000084908600520486007490648C160816013
:1027A000FEF7B6FC002802D00320FDF7EBFE10BDBB
:1027B00000300040B4000020FF0F000000B58DB0D5
:1027C000002009900A900B900C90079008901C2113
:1027D0006846FDF7F5FC2548254908600820486053
:1027E0000021234881607D21C900C1600021016171
:1027F0008161FFF727FA002802D00420FDF7C2FE0E
:1028000001200003099009A91948FFF765FA00287B
:1028100002D00420FDF7B6FE1548FFF79CFB002808
:1028200002D00420FDF7AEFE00200790089007A913
:102830000F48FFF7CBF9002802D00420FDF7A2FED5
:1028400060200090002001900290049000226946D0
:102850000748FFF7FBFA002802D00420FDF792FE9C
:102860000348FFF7C5FA0DB000BD000000040040AA
:10287000C400002000BFFEE77047704770B590B0FD
:102880000646302400253022314604A8FDF77FFC9F
:1028900021E07D21C900082204A8401901230192EA
:1028A000029100902A46A0210F48FEF71DFB002848
:1028B00004D00E480078401C0C4908700520FDF734
:1028C000B3FE082C06DB20460838C4B22846083080
:1028D000C5B200E00024002C03D004480078002892
:1028E000D7D010B070BD0000600000200C000020A8
:1028F00010B50446606900287ED02C20005D0028B9
:102900007AD12078002878D0012804D0022875D008
:10291000032874D1A2E16078030001F0E3F8059583
:1029200004274A719400FA480078002800D0A9E0F2
:1029300000220221F748FDF78EFF012211460920EF
:10294000C006FDF788FF002202210920C006FDF71E
:1029500082FF002204210920C006FDF77CFF00222F
:1029600008210920C006FDF776FF8BE0E8480078D3
:10297000002800D086E000220221E648FDF76BFF28
:10298000002201210920C006FDF765FF0122022176
:102990000920C006FDF75FFF002204210920C006C0
:1029A000FDF759FF002208210920C006FDF753FF5B
:1029B00068E0D7480078002800D063E000220221B8
:1029C000D448FDF748FF002201210920C006FDF789
:1029D00042FF002202210920C006FDF73CFF012230
:1029E00004210920C006FDF736FF00220821092036
:1029F000C006FDF730FF45E0F6E19DE144E09AE1D5
:102A0000C3480078002800D03CE000220221C148E1
:102A1000FDF721FF002201210920C006FDF71BFF61
:102A2000002202210920C006FDF715FF0022042123
:102A30000920C006FDF70FFF012208210920C0066A
:102A4000FDF709FF1EE000BF00220221B148FDF79B
:102A500002FF002201210920C006FDF7FCFE002232
:102A600002210920C006FDF7F6FE002204210920FC
:102A7000C006FDF7F0FE002208210920C006FDF780
:102A8000EAFE00BF00BF75E1A348007800287DD1B1
:102A90002079030001F026F8057F0422405E7E00C5
:102AA000002202219B48FDF7D6FE01221146092093
:102AB000C006FDF7D0FE002202210920C006FDF766
:102AC000CAFE002204210920C006FDF7C4FE002230
:102AD00008210920C006FDF7BEFE7AE0002202218F
:102AE0008C48FDF7B8FE002201210920C006FDF741
:102AF000B2FE012202210920C006FDF7ACFE002231
:102B000004210920C006FDF7A6FE002208210920A5
:102B1000C006FDF7A0FE5CE0002202217D48FDF723
:102B20009AFE002201210920C006FDF794FE002232
:102B300002210920C006FDF78EFE01220421092092
:102B4000C006FDF788FE002208210920C006FDF717
:102B500082FE3EE0002202216E48FDF77CFE00224C
:102B600001210920C006FDF776FE0022022109207E
:102B7000C006FDF770FE002204210920C006FDF703
:102B80006AFE012208210920C00600E02CE0FDF7C2
:102B900062FE1EE000BF002202215E48FDF75BFEE0
:102BA000002201210920C006FDF755FE0022022166
:102BB0000920C006FDF74FFE002204210920C006AF
:102BC000FDF749FE002208210920C006FDF743FE5B
:102BD00000BF00BF50480078401C4F490870FDF707
:102BE00041FE4E49086038E04B48007801282AD160
:102BF0004A480068002830D1012202214548FDF7EB
:102C00002AFE002201210920C006FDF724FE002231
:102C100002210920C006FDF71EFE00220421092022
:102C2000C006FDF718FE002208210920C006FDF7A6
:102C300012FEFDF717FE3949086037480078401C3E
:102C40003549087009E034480078012805DD33482B
:102C50000068002801D1304908708BE02E480078C8
:102C6000002826D1002202212A48FDF7F4FD002287
:102C700001210920C006FDF7EEFD002202210920F6
:102C8000C006FDF7E8FD002204210920C006FDF77B
:102C9000E2FD012208210920C006FDF7DCFD1E48E7
:102CA0000078401C1C490870FDF7DCFD1B490860DA
:102CB00040E019480078012832D1184800680028FF
:102CC00038D1002202211348FDF7C5FD0022012161
:102CD0000920C006FDF7BFFD002202210920C00621
:102CE000FDF7B9FD002204210920C006FDF7B3FD60
:102CF000002208210920C006FDF7ADFDFDF7B2FD59
:102D00000649086004480078401C0349087011E037
:102D10000D000020000400480F00002014000020D7
:102D200077480078012805DD76480068002801D141
:102D3000734908701EE000BF012202217248FDF7AE
:102D40008AFD002201210920C006FDF784FD002232
:102D500002210920C006FDF77EFD00220421092082
:102D6000C006FDF778FD002208210920C006FDF706
:102D700072FD00BF00BFE07800281FD0012802D0FC
:102D800002281AD10CE0012210210920C006FDF70B
:102D900062FD002220210920C006FDF75CFD1AE03B
:102DA000012220210920C006FDF755FD0022102137
:102DB0000920C006FDF74FFD0DE000BF00221021E5
:102DC0000920C006FDF747FD002220210920C0068A
:102DD000FDF741FD00BF00BF2520005D012830D177
:102DE0000221252001552CE0002201210920C006E6
:102DF000FDF731FD002202210920C006FDF72BFD61
:102E0000002204210920C006FDF725FD002208212B
:102E10000920C006FDF71FFD002202213A48FDF7F8
:102E20001AFD2C20005D00280BD100221021092062
:102E3000C006FDF710FD002220210920C006FDF785
:102E40000AFD2C20005D00284CD030480078002876
:102E500004D0012818D0022835D135E001221021F4
:102E60000920C006FDF7F7FC012220210920C00639
:102E7000FDF7F1FCFDF7F6FC2549086023480078D2
:102E8000401C224908702CE0FDF7ECFC2049096841
:102E9000401AFF21F531884214D300221021092065
:102EA000C006FDF7D8FC002220210920C006FDF74E
:102EB000D2FCFDF7D7FC1649086014480078401C86
:102EC000124908700DE000BFFDF7CCFC10490968FD
:102ED000401AFF21F531884202D300200B490870C7
:102EE00000BF00BFFDF7BEFC06490968401AFF217C
:102EF000F531884202D300200249086010BD00006D
:102F00000F000020140000200004004810000020E2
:102F1000180000202521095C00292AD12C21095CF8
:102F2000002926D12421095CC907C90F00291DD019
:102F30001049097800290AD1C178012907D10D4922
:102F40000978491C0B4A11700221C17011E009492E
:102F5000097800290DD1C17802290AD105490978DB
:102F6000491C044A11700121C17002E00021014A8C
:102F7000117070471D00002010B50446207801280C
:102F800018D02078032815D00020AE490870AE492B
:102F90000870AE490870A060E060012060700022F7
:102FA0000121AB48FDF757FC00220221A848FDF79C
:102FB00052FC3BE1E07801287ED1A248007800284D
:102FC00065D1FDF74FFCA168401AE168884237D30C
:102FD0009D480078002834D160789E49087001200F
:102FE00060709D490870002201219948FDF733FC6B
:102FF000FDF738FC9949086096480078012803D10C
:1030000097489849086016E092480078022803D152
:103010009548944908600EE08E480078032803D153
:1030200092489049086006E08A480078042802D156
:103030008F488C49086084480078401C8249087099
:1030400096E0814800780128FAD1FDF70BFC83490E
:103050000968401A834909688842F1D37D4800789D
:10306000607000207C490870012202217848FDF739
:10307000F2FBFDF7F7FBA0607E48E060002072499C
:10308000087070480078401C6E49087070E06D4808
:103090000078012867D1FDF7E5FBA168401AE168D7
:1030A000884265D368480078002836D1607869493D
:1030B00008700120607000E05EE06749087000223F
:1030C00002216348FDF7C7FBFDF7CCFB63490860AD
:1030D00060480078012803D161486249086016E021
:1030E0005C480078022803D15F485E4908600EE022
:1030F00058480078032803D15C485A49086006E024
:1031000054480078042802D15948564908604E486E
:103110000078401C4C4908702AE04B480078012890
:1031200026D1FDF79FFB4D490968401A4D490968B2
:1031300088421DD3474800786070002046490870D7
:10314000012211464248FDF786FBFDF78BFBA0608C
:103150004848E06000203C4908703A480078401C2C
:103160003849087004E00020374908703549087074
:1031700000203649087059E0E078022856D13348DB
:10318000007800282ED1002201213148FDF763FB91
:10319000002202212E48FDF75EFBFDF763FB2F495D
:1031A00008606078012803D12D482E49086013E09B
:1031B0006078022803D12C482A4908600CE0607826
:1031C000032803D129482749086005E060780428CE
:1031D00002D12748234908601C480078401C1B493D
:1031E00008701AE019480078012816D1FDF73AFB5B
:1031F0001A490968401A1B49096888420DD31E48BC
:1032000020620020A070012202211148FDF723FB5B
:103210000E480078401C0D49087000200E490870C7
:10322000A060E060074908700749087013480078FB
:10323000002805D000201149087060780549087001
:1032400010BD00004000002041000020420000208E
:10325000001400484C0000200D0000204400002015
:10326000B80B000048000020701700002823000061
:10327000E02E000070110100E70300000E000020A6
:1032800010B504462520005D002874D12C20005D77
:10329000002870D14948007800283BD12420005DE7
:1032A00002210840002835D0022020702079002813
:1032B00004D1012020714248E0611EE020790128FC
:1032C00004D1022020713F48E06116E020790228F5
:1032D00004D1032020713C48E0610EE020790328EE
:1032E00004D1042020713948E06106E020790428E7
:1032F00003D1012020713248E061FDF7B3FAA061EB
:10330000FDF7B0FA324908602C480078401C2B4980
:10331000087030E02948007801281ED12420005D83
:1033200002210840002804D1244908702849086077
:1033300021E0FDF797FA26490968401A7D21090125
:10334000884218D30020A061E061207020711B48E2
:103350000078401C194908700DE0184800780228D0
:1033600009D12420005D02210840002803D113491F
:10337000087017490860207802281DD1A06900282C
:1033800010D11448007800280CD1012020700020B2
:103390002071FDF767FA60610E480078401C0D4906
:1033A000087009E0A069002806D00A4800780028C3
:1033B00002D000200749087010BD00001E00002048
:1033C00080EE360000DD6D0000BADB000074B7014E
:1033D000200000201F00002010B50446A07861786E
:1033E000884275D057480068002818D1A0786178C5
:1033F000884203DA02205449086006E0A078617828
:10340000884202DD012050490860FDF72BFA4F4940
:1034100008604C480068401C4A49086091E04948EF
:1034200000680128FAD1FDF71DFA48490968401AD9
:1034300014281CD344480068012807D14449206A55
:10344000884203D2206A401C20620CE03E4800689B
:10345000022806D1206A002803D0206A401E20627C
:1034600001E06078A0703B49206A09684863607891
:10347000012805D13649206A884201D16078A070C0
:103480006078022805D13449206A884201D16078E9
:10349000A0706078032806D1FF214E31206A88424F
:1034A00001D16078A0706078042804D1206A0028D7
:1034B00001D16078A070A0786178884241D1002065
:1034C00020490860204908602049086039E0FFE78A
:1034D000607801280CD11E49206A884208D0206AF1
:1034E000884202D20220A0702BE00020A07028E0C9
:1034F000607802280CD11849206A884208D0206AD6
:10350000884202D20320A0701BE00120A07018E0C6
:10351000607803280DD1FF214E31206A884208D0FF
:10352000206A884202D20420A0700AE00220A07023
:1035300007E06078042804D1206A002801D0032025
:10354000A07010BD380000203C0000203400002096
:10355000E7030000C40000209A0200002521095C56
:10356000002975D12C21095C002971D139490978CC
:10357000002916D12421095C04221140002910D011
:1035800034490978491C334A11700121324A1170BB
:103590000021324A11700121417001700021017136
:1035A00056E02C490978002917D12421095C08220A
:1035B0001140002911D027490978491C254A11706A
:1035C0000121254A11700021244A11700221417005
:1035D00001210170002101713AE01E49097800299A
:1035E00017D12421095C20221140002911D019494A
:1035F0000978491C174A11700121174A11700021DE
:10360000164A1170032141700121017000210171DE
:103610001EE010490978002917D12421095C4022B5
:103620001140002911D0017803290ED009490978E9
:10363000491C084A11700021084A11700421417088
:10364000012101700021017102E00021014A117085
:10365000704700001C0000200E0000200D0000201C
:1036600010B5FDF79BFD10BD00B595B0302109A840
:10367000FCF7A6FD002005900690079008900190A9
:103680000290039004900A20099001200C901020D1
:103690000D90012010900020119009A8FDF7B4FFB3
:1036A000002802D00120FCF76DFF072005900020C4
:1036B000069007900890002105A8FDF7A3FE0028BA
:1036C00002D00120FCF75EFF202001900020049032
:1036D00001A8FDF7EFFD002802D00120FCF752FF02
:1036E00015B000BD7047000010B50268214B98422C
:1036F00002D0214B984205D170241346A3431A46A9
:103700004B681A431B4B98420BD01B4B984208D076
:103710001A4B984205D01A4B984202D0194B984246
:1037200006D1032424021346A3431A46CB681A4346
:1037300080241346A3434C6923431A4602608B68D6
:10374000C3620B6883620B4B984205D00C4B9842C6
:1037500002D00C4B984201D10B69036301234361F2
:103760000369DB07DB0F002B03D003695B085B00F9
:10377000036110BD002C0140000400400020004007
:10378000004401400048014070B5CD06ED0E012413
:10379000AC402346046A9C430462046ACE06F60EDB
:1037A0001546B5402C43046270BD70B50C46816867
:1037B000FF2636020D46B54329461D021543254313
:1037C0002943816070BD10B50A46816870240B469C
:1037D000A3431946072313431943816010BD00001A
:1037E00070B5026A056A6D086D00056243688469F8
:1037F00070262546B5432C46A408A4000D682C432A
:1038000002261546B5432A468D682A43184DA8421C
:1038100000D107E0174DA84200D103E0164DA842A1
:103820000AD100BF08261546B5432A46CD682A436B
:1038300004261546B5432A460D4DA84205D00D4D28
:10384000A84202D00C4DA8420CD1FF2601361D46DD
:10385000B5432B4676001D46B5432B464D692B4399
:103860008D692B43436084614D684563026270BD7E
:10387000002C0140004401400048014070B5026A3C
:10388000056A1026B5430562436884690726360336
:103890002546B5432C46032636022546B5432C461D
:1038A0000D682D022C4320261546B5432A468D6807
:1038B0002D012A431A4DA84200D107E0194DA84214
:1038C00000D100BF184DA8420BD10AE08026154652
:1038D000B5432A46CD682D012A4340261546B543F7
:1038E0002A460F4DA84205D00E4DA84202D00E4DDB
:1038F000A8420ED10126B6021D46B5432B467600DE
:103900001D46B5432B464D69AD002B438D69AD0077
:103910002B43436084614D688563026270BD000083
:10392000002C0140004401400048014070B5026A8B
:10393000056AFF260136B54305624368C4697026EF
:103940002546B5432C46A408A4000D682C43012647
:1039500076021546B5432A468D682D022A431B4D33
:10396000A84200D107E01A4DA84200D100BF194D6E
:10397000A8420CD10BE00126F6021546B5432A46B3
:10398000CD682D022A4376101546B5432A460F4DC1
:10399000A84205D00E4DA84202D00E4DA8420ED12D
:1039A000012636031D46B5432B4676001D46B5431A
:1039B0002B464D692D012B438D692D012B4343600F
:1039C000C4614D68C563026270BD0000002C0140F7
:1039D000004401400048014070B5036A056A0126B1
:1039E0003603B54305624468C269072636031546A7
:1039F000B5432A46032636021546B5432A460D68C6
:103A00002D022A43012676031D46B5432B468D68B9
:103A10002D032B430B4DA84205D00B4DA84202D0DD
:103A20000A4DA84207D10126B6032546B5432C46C8
:103A30004D69AD012C434460C2614D680564036269
:103A400070BD0000002C01400044014000480140CE
:103A500070B50B461446026A056A6D086D00056272
:103A60008169F0260D46B5432946250129430A26DA
:103A70001546B5432A4615461D432A468161026212
:103A800070BD70B50B461446026A056A1026B54330
:103A9000056281690F2636030D46B5432946250385
:103AA0002943A0261546B5432A461D012A438161B4
:103AB000026270BDF8B582B28BB2040C0D0C1046D8
:103AC0005843002126465E43370C3604801979415D
:103AD00016466E43370C36048019794126466E43EC
:103AE0008919F8BD30B47446641E2578641CAB4255
:103AF00004D3635D5B00E31830BC18471D46F8E74C
:103B000010B5002819DB1A4A03231B02D2188308B8
:103B10009B00D2588307DC0EFF23A3409A438B07F8
:103B20001B0E8407E40EA3401A43114B0324240206
:103B30001B198408A4001A5118E00E4A03071B0F32
:103B4000083B9B089B00D2588307DC0EFF23A34051
:103B50009A438B071B0E8407E40EA3401A43054BC0
:103B60000407240F083CA408A4001A5110BD00004B
:103B700000E100E01CED00E002E008C8121F08C1EF
:103B8000002AFAD170477047002001E001C1121FDE
:103B9000002AFBD1704708B5262000F0F3F800900A
:103BA0006846007841084900491C00916846007841
:103BB00002218843811C00916846007804218843D3
:103BC000011D009168460078082188434118009142
:103BD00068460078102188434118009168460078B3
:103BE000202188434118009168460078402188438D
:103BF000411800916846007880218843411800915F
:103C000068460178262000F0DFF808BDFDF7D2FAFB
:103C1000FFF72AFDFEF710FDFEF786FDFEF7B6FD65
:103C2000FEF7CCFD6420FCF7FFFCFCF7F7FA6420FC
:103C3000FCF7FAFC00214A48FEF7C0F94948FEF7B4
:103C4000ADFCFCF70FFE4749486147480078002863
:103C500003D00846FEF7CAFC15E042480078032866
:103C60000BDC40484078042807DC3E48C078022836
:103C700003DC3C480079042805DD3A48FEF7B6FC31
:103C80003848FEF7FBFD3948354909684863FCF7B9
:103C9000E9FD3749086062E03248FCF778FC3148BA
:103CA000FCF758FB2F48FFF759FC2E48FFF7E8FABE
:103CB0002C48FFF72FF92B48FFF75EF92948FFF74B
:103CC0008BFB2848FEF714FE2648FCF715FC254818
:103CD000FCF7CEFB23482030407900280DD0FCF7BC
:103CE000C1FD23490968401A2249884205D3FCF7DF
:103CF000B9FD1F490860FFF74EFF1A4820300079D0
:103D0000002808D01C480068002804D1FCF7AAFD50
:103D1000194908600BE0134820300079002806D1CB
:103D200015480068002802D0002013490860124896
:103D3000006800280DD0FCF795FD0F490968401A6E
:103D40000E49884205D3FCF78DFD0B490860FFF74B
:103D500022FF0A20FCF768FC0948FDF717FA9BE7E9
:103D6000C40000200C0100200C000020E70300002C
:103D700004000020A05B000008000020078700006E
:103D8000B40000203EB5044601946420012301AA3A
:103D9000502100900B48FCF707FF002802D00820B4
:103DA000FCF7F0FB6420012302AA51210090054892
:103DB000FCF744FE002802D00820FCF7E3FB68462D
:103DC000007A3EBD6000002013B50446012201A91F
:103DD000204600F001F81CBD70B5C2B004460E4686
:103DE0001546684604722A4631460930FCF7CFF979
:103DF00064206B1C02AA502100900548FCF7D4FEF9
:103E0000002802D00A20FCF7BDFB42B070BD0000C4
:103E10006000002002030405060708090A0B0C0DC8
:103E20000E0F10100102030405060708090A0B0C07
:103E30000D0E0F100000000000000000010203043E
:103E40000607080900000000010203046C3E000898
:103E50000000002060000000783B0008CC3E000815
:103E60006000002010050000883B000800000000F2
:103E70000000000000000000000000000000000042
:103E80000000000000000000000000000000000032
:103E90000000000000000000000000000000000022
:103EA0000000000000000000000000000000000012
:103EB0000000000000000000000000000000000002
:0C3EC000040000000100000000127A0065
:04000005080000B13E
:00000001FF
