:020000040800F2
:10000000C00700208D010008152A00087D22000885
:1000100000000000000000000000000000000000E0
:100020000000000000000000000000001B2A000883
:100030000000000000000000192A0008E136000856
:100040009F010008000000009F0100089F010008B8
:100050009F0100089F0100089F0100089F01000800
:10006000000000009F0100089F0100089F01000898
:100070009F0100089F0100089F0100080000000088
:100080009F01000800000000000000009F01000820
:10009000000000009F0100089F0100089F01000868
:1000A000000000009F010008000000009F01000800
:1000B00000F002F800F03EF80CA030C80838241810
:1000C0002D18A246671EAB4654465D46AC4201D190
:1000D00000F030F87E460F3E0FCCB6460126334284
:1000E00000D0FB1AA246AB4633431847043D00003C
:1000F000243D0000103A02D378C878C1FAD85207DC
:1001000001D330C830C101D504680C6070470000CD
:100110000023002400250026103A01D378C1FBD823
:10012000520700D330C100D50B6070471FB51FBD0B
:1001300010B510BD00F0D8F91146FFF7F7FF03F036
:1001400093FD00F0F0F903B4FFF7F2FF03BC00F0F9
:10015000F7F9000070B505460C46164602E00FCCD4
:100160000FC5103E102EFAD2082E02D303CC03C5C1
:10017000083E042E07D301CC01C5361F03E02178C9
:100180002970641C6D1C761EF9D270BD074880472B
:1001900007480047FEE7FEE7FEE7FEE7FEE7FEE76B
:1001A00004480549054A064B704700005F370008C0
:1001B000B1000008C0010020C0070020C0030020DB
:1001C000C0030020FEB5054610460C46184373D008
:1001D000AE468C460020AD1A01469C4167D3664668
:1001E000002701243D46B61A9D4102D313463A46E4
:1001F0002124654676462F04360C3E432D0CB61A54
:100200009D4104D3150C1B042B4312041034654686
:1002100076462F06360A3E432D0AB61A9D4104D370
:10022000150E1B022B4312020834654676462F0733
:1002300036093E432D09B61A9D4104D3150F1B0103
:100240002B431201241D65467646AF07B6083E4390
:10025000AD08B61A9D4104D3950F9B002B43920025
:10026000A41C65467646EF0776083E436D08B61A2D
:100270009D411AD392185B41641C16E00018764623
:1002800065464941B71A9D410191009009D36046E6
:10029000B11A98418E468446009801990025401C69
:1002A0006941DD0752082A435B08641EE6D57246A1
:1002B000634603B0F0BDFFE700200146C046C046DC
:1002C0002A462346F5E7F8B5042A2CD3830712D033
:1002D0000B78491C0370401C521E83070BD00B780F
:1002E000491C0370401C521E830704D00B78491C24
:1002F0000370401C521E8B079B0F05D0C91ADF00EC
:100300002023DE1B08C90AE0FFF724FFF8BD1D46C5
:1003100008C9FD401C46B4402C4310C0121F042ADB
:10032000F5D2F308C91A521EF0D40B78491C037099
:10033000401C521EEAD40B78491C0370401C012A51
:10034000E4D409780170F8BD01E004C0091F042954
:10035000FBD28B0701D50280801CC90700D0027038
:10036000704700290BD0C30702D00270401C491E01
:10037000022904D3830702D50280801C891EE3E78B
:100380000022EEE70022DFE7002203098B422CD394
:10039000030A8B4211D300239C464EE003460B43D5
:1003A0003CD4002243088B4231D303098B421CD337
:1003B000030A8B4201D394463FE0C3098B4201D329
:1003C000CB01C01A524183098B4201D38B01C01A61
:1003D000524143098B4201D34B01C01A52410309D8
:1003E0008B4201D30B01C01A5241C3088B4201D387
:1003F000CB00C01A524183088B4201D38B00C01A34
:10040000524143088B4201D34B00C01A5241411A5A
:1004100000D201465241104670475DE0CA0F00D03D
:100420004942031000D34042534000229C46030936
:100430008B422DD3030A8B4212D3FC22890112BABC
:10044000030A8B420CD3890192118B4208D3890194
:1004500092118B4204D389013AD0921100E08909AC
:10046000C3098B4201D3CB01C01A524183098B428D
:1004700001D38B01C01A524143098B4201D34B0176
:10048000C01A524103098B4201D30B01C01A5241D9
:10049000C3088B4201D3CB00C01A524183088B4260
:1004A00001D38B00C01A5241D9D243088B4201D3E9
:1004B0004B00C01A5241411A00D2014663465241D4
:1004C0005B10104601D34042002B00D549427047D3
:1004D00063465B1000D3404201B50020C046C046D1
:1004E00002BD704770477047754600F025F8AE466C
:1004F000050069465346C008C000854618B020B5BF
:10050000FFF74EFE60BC00274908B6460026C0C56E
:10051000C0C5C0C5C0C5C0C5C0C5C0C5C0C5403DBB
:1005200049008D46704710B50446C046C046204677
:10053000FFF709FE10BD0000004870475C01002075
:1005400001491820ABBEFEE72600020070470000FC
:100550001FB5002103910291FD21684601716420BD
:10056000012301AA50210090284800F06FFC0028C8
:1005700001D000F089F96420012302AA51210090E2
:10058000224800F0ADFB002801D000F07DF9FE20EC
:10059000694608716420012301AA502100901B487C
:1005A00000F054FC002801D000F06EF96420012313
:1005B00003AA51210090154800F092FB002801D0B9
:1005C00000F062F96846007A71281DD16846007B08
:1005D0005D2819D100212A2000F03AF87F2121203E
:1005E00000F036F87F21272000F032F80021282083
:1005F00000F02EF8FF21292000F02AF82F211F20DB
:1006000000F026F803F0F4FA1FBD000050000020AF
:1006100001B582B06420012302AA502100900B484A
:1006200000F014FC002801D000F02EF96420012312
:1006300001AA51210090054800F052FB002801D08A
:1006400000F022F9684600790EBD0000500000203D
:100650007CB504460D46684604714571642002234A
:1006600001AA50210090044800F0F0FB002801D0BE
:1006700000F00AF97CBD00005000002010B50446CF
:100680002520005D002851D12C20005D00284DD18F
:1006900035480078002814D12420005D402108400E
:1006A00000280ED030480078401C2F4908703022B6
:1006B00021462E48FFF74EFD00F026FA2C4908602F
:1006C00034E029480078012820D12420005D402111
:1006D0000840002804D1244908702549086025E015
:1006E00000F012FA22490968401A224988421DD3B3
:1006F0000320207004206070002020710220E07030
:1007000019480078401C184908700FE01648007816
:1007100002280BD12420005D40210840002805D18B
:100720001149087000F0F0F9114908602078032899
:1007300019D100F0E9F90E490968401A0E498842BA
:1007400011D30A4800782070084840786070074844
:100750008078A070054800782070044800792071E6
:100760000248C078E07010BD140000202C01002069
:100770001800002088130000A0BB0D0010B504462F
:100780002C20005D002835D01B48007800280FD1B0
:100790002420005DC007C00F002809D000F0B4F984
:1007A0001649086014480078401C1349087021E07D
:1007B0001148007801281DD12420005DC007C00F1A
:1007C000002804D10C4908700C49086012E000F0C0
:1007D0009BF90A490968401A094988420AD300214D
:1007E0002C200155204602F019F90020024908701A
:1007F0000249086010BD00001C00002020000020FD
:100800008813000010B5044600F07EF96169401AB3
:100810001A49884201D30020606100F075F921690E
:10082000401A1649884204D3002020610121252066
:10083000015500F069F9A169401AE169884201D3C4
:100840000020A06100F060F90D490968401A0D49C7
:10085000884211D300F058F909490860A06A401C89
:10086000A062204602F0DAF887214901A06A884296
:1008700002D301212C20015510BD0000204E0000A4
:100880003C00002080EE360072B600BFFEE770B577
:1008900004460320FFF7BCFE242108550020FFF783
:1008A000B7FE0546E807C00F002803D00021084620
:1008B000FFF7CEFE2420005D002805D000F024F9CB
:1008C000206100F021F960612420005D002806D13C
:1008D0002520005D022802D100212520015570BD90
:1008E00070B5044600F010F906462546681C00283D
:1008F00002D0054800782D1800BF00F005F9801BD4
:10090000A842FAD370BD00004800002078B5034625
:100910000A460021DFE001268E4014683440002C96
:100920007ED01579AD07AD0F012D04D01579AD0737
:10093000AD0F022D18D198684E000325B54006462C
:10094000AE4330464E00D568B5402843986058689D
:1009500001258D400646AE43304610265568354089
:100960002D098D40284358601579AD07AD0F032D33
:100970000BD0D8684E000325B5400646AE4330463E
:100980004E009568B5402843D8601579AD07AD0F86
:10099000022D15D1CD08AE001D462035A8594D07B2
:1009A000EE0E0F25B5400646AE4330464E07F60E16
:1009B0001569B5402843CD08AD001E46203670515C
:1009C00018684E000325B5400646AE4330461579FB
:1009D000AD07AD0F4E00B54028431860032636041E
:1009E00055683540002D75D000BF3E4DAD690126DC
:1009F00035433C4EB5613546AD69ED07ED0F0095C9
:100A000000BF00BF384D8E08B600A8598D072E0FC5
:100A10000F25B5400646AE4330460925ED0600E0F9
:100A200058E0AB4201D100250FE0304DAB4201D17F
:100A300001250AE02E4DAB4201D1022505E02D4DE6
:100A4000AB4201D1032500E005258E07360FB540E6
:100A50002843254D8E08B600A851274DA8680546A5
:100A6000A54328460126360555683540002D02D09D
:100A7000054625432846204DA860E8680546A5435D
:100A800028460126760555683540002D02D00546DA
:100A900025432846184DE86068680546A543284662
:100AA0000126760455683540002D02D005462543C1
:100AB0002846114D686028680546A543284601264A
:100AC000360455683540002D02D00546254328469A
:100AD000094D2860491C1568CD40002D00D01AE74B
:100AE00078BD0000001002400800014000040048EA
:100AF00000080048000C004800040140002A01D012
:100B0000816100E081627047014800687047000021
:100B10004000002002464120805C20282FD100BFE9
:100B20004020805C012801D1022070470123402031
:100B3000835400BF24234120835410680068400878
:100B40004000136818601068006801231B03984375
:100B5000136818601068006808431368186010680C
:100B60000068012318431368186020234120835430
:100B700000BF00234020835400BF0020D5E702209F
:100B8000D3E710B502460B464120805C20282ED1C9
:100B900000BF4020805C012801D1022010BD01244B
:100BA0004020845400BF24244120845410680068ED
:100BB0004008400014682060106801680F24240277
:100BC0000846A043014618020143106801601068FE
:100BD00000680124204314682060202441208454AC
:100BE00000BF00244020845400BF0020D6E702202C
:100BF000D4E7000010B50446002C01D1012010BD3F
:100C00004120005D002805D10021402001552046EB
:100C100000F08EFB24214120015520680068400827
:100C20004000216808600F21090660688843216838
:100C30000861206880680121C903884321688860B1
:100C4000E068012806D10121C903A0680843216892
:100C5000886005E021218902A06808432168886036
:100C6000E068022807D1206840680121C9020843D2
:100C70002168486006E0206840680121C902884375
:100C8000216848602068406814490843216848602A
:100C90002068C0680121C90388432168C860616970
:100CA00020690843A169090208432168C860216AD4
:100CB000E069084321680860206800680121084352
:100CC0002168086000206064202141200155002037
:100CD0002063002142200155002090E7008000029F
:100CE000FFB581B0044616461F464120005D20280E
:100CF00077D100BF4020005D012802D1022005B05D
:100D0000F0BD01214020015500BFFFF7FDFE054663
:100D100019230122D1032046009501F017FC002879
:100D200001D00120EBE72221412001551021422072
:100D3000015500206064666267856063608DFF28EE
:100D40000BD9012020853F480090208DC2B20B05B1
:100D50002046029901F0DCFB0BE0608D20853948CC
:100D60000090208DC2B201235B062046029901F05B
:100D7000CFFB43E02A4620460A9901F027FC0028D1
:100D800001D00120BBE72068406A616A0870606A90
:100D9000401C6062208D401E2085608D401E608555
:100DA000608D00282AD0208D002827D100950022B0
:100DB000802120460A9B01F0C9FB002801D00120B8
:100DC0009DE7608DFF280DD9FF2020850020009031
:100DD000208DC2B201231B062046029901F098FB28
:100DE0000CE02CE0608D208500200090208DC2B2A8
:100DF00001235B062046029901F08AFB608D0028E2
:100E0000B8D12A4620460A9901F04EFC002801D0AC
:100E1000012074E720202168C861206840680A49E1
:100E200008402168486020214120015500214220CE
:100E3000015500BF4020015500BF00205FE70220A0
:100E40005DE700000024008000E800FEFFB581B0EF
:100E5000044617464120005D20287DD100BF402078
:100E6000005D012802D1022005B0F0BD0121402023
:100E7000015500BFFFF748FE054619230122D103A3
:100E80002046009501F062FB002801D00120EBE72D
:100E9000212141200155102142200155002060648C
:100EA00067620498608500206063608DFF2803D925
:100EB000FF2020850E0503E0608D20850126760643
:100EC000208D002817D0606A007821688862606AE7
:100ED000401C6062608D401E6085208D401E208514
:100EE0003D480090208D401CC2B2334620460299F6
:100EF00001F00EFB08E038480090208DC2B2334666
:100F00002046029901F004FB43E02A4620460A9954
:100F100001F0FDFB002801D00120A5E7606A007800
:100F200021688862606A401C6062608D401E608536
:100F3000208D401E2085608D00282AD0208D00281D
:100F400027D100950022802120460A9B01F0FEFA5D
:100F5000002802D0012087E73CE0608DFF280CD9F3
:100F6000FF20208500200090208DC2B201231B06A7
:100F70002046029901F0CCFA0BE0608D208500201C
:100F80000090208DC2B201235B062046029901F039
:100F9000BFFA608D0028B8D12A4620460A9901F090
:100FA00083FB002801D001205EE720202168C86172
:100FB0002068406809490840216848602021412094
:100FC000015500214220015500BF4020015500BFBE
:100FD000002049E7022047E70020008000E800FEEB
:100FE000FFB583B004460C9F0E9E4120005D202873
:100FF0007ED1002F02D00D98002805D1012040029B
:101000006064012007B0F0BD00BF4020005D0128F2
:1010100001D10220F6E701214020015500BFFFF772
:1010200073FD054619230122D1032046009501F0E6
:101030008DFA002801D00120E4E72221412001554A
:101040004021422001550020606467620D98608550
:101050000020606300960195204604A90EC901F0A6
:10106000D7F9002806D000BF00214020015500BF5D
:101070000120C7E7608DFF280CD901202085414859
:101080000090208DC2B201231B062046049901F076
:101090003FFA0BE0608D20853A480090208DC2B267
:1010A00001235B062046049901F032FA00BF334663
:1010B000002204212046009501F048FA002801D0C2
:1010C00001209FE72068406A616A0870606A401CDE
:1010D0006062208D401E2085608D401E6085608D81
:1010E00000282BD0208D002828D13346002200E094
:1010F00045E080212046009501F028FA002801D023
:1011000001207FE7608DFF280CD901202085002079
:101110000090208DC2B201231B062046049901F0E5
:10112000F7F90BE0608D208500200090208DC2B281
:1011300001235B062046049901F0EAF9608D00283E
:10114000B5D12A463146204601F0AEFA002801D03A
:10115000012057E720202168C861206840680A49BB
:10116000084021684860202141200155002142208B
:10117000015500BF4020015500BF002042E702207A
:1011800040E700000024008000E800FEFFB583B0C7
:1011900004460C9F0E9E4120005D20287ED1002F2A
:1011A00002D00D98002805D1012040026064012082
:1011B00007B0F0BD00BF4020005D012801D1022032
:1011C000F6E701214020015500BFFFF79DFC0546D1
:1011D00019230122D1032046009501F0B7F9002818
:1011E00001D00120E4E72121412001554021422086
:1011F00001550020606467620D986085002060637F
:1012000000960195204604A90EC901F041F9002875
:1012100006D000BF00214020015500BF0120C7E7D4
:10122000608DFF280CD9FF20208500200090208DA4
:10123000C2B201231B062046049901F069F90BE0B4
:10124000608D208500200090208DC2B201235B06B6
:101250002046049901F05CF900BF2A463146204639
:1012600001F055FA002801D00120A1E7606A00785A
:1012700021688862606A401C6062608D401E6085E3
:10128000208D401E2085608D00282BD0208D0028C9
:1012900028D1334600228021204600E043E000951B
:1012A00001F054F9002801D0012081E7608DFF286A
:1012B0000CD9FF20208500200090208DC2B2012390
:1012C0001B062046049901F023F90BE0608D208570
:1012D00000200090208DC2B201235B0620460499B5
:1012E00001F016F9608D0028B7D12A463146204614
:1012F00001F0DAF9002801D0012059E72020216807
:10130000C861206840680949084021684860202178
:101310004120015500214220015500BF40200155C8
:1013200000BF002044E7022042E7000000E800FE82
:1013300010B586B00446142101A8FFF723F81B4915
:10134000206888422FD100BF194840690121490413
:10135000084317494861084640690121490408408B
:10136000009000BF00BF03204002019012200290B5
:1013700000200390032004900420059001A9092077
:10138000C006FFF7C3FA00BF0948C069012149053B
:1013900008430749C8610846C0690121490508405A
:1013A000009000BF00BF06B010BD00000054004018
:1013B00000100240034800680349097840180149B9
:1013C00008607047400000204800002010B5064823
:1013D00000681021084304490860032000F006F863
:1013E00000F02EF8002010BD0020024070B5044629
:1013F000104801787D20C000FEF7C6FF0646314642
:101400000D480068FEF7C0FF054600F0B3FC002859
:1014100001D0012070BD042C07D200222146501EAD
:1014200000F02EF80548046001E00120F2E70020FA
:10143000F0E70000480000204C000020440000209D
:1014400008B500BF0D488069012108430B49886138
:1014500008468069C007C00F009000BF00BF00BFF2
:101460000846C069090408430449C8610846C069C0
:1014700009040840009000BF00BF08BD00100240F2
:1014800070B504460D4616462946204602F074FB08
:1014900070BD0000F8B504460026002501210904AE
:1014A0002068084088427AD100274B48C069090368
:1014B000084000280DD100BF4748C069084346498D
:1014C000C8610846C06909040840009000BF00BF19
:1014D000012742480068FF2101310840002816D149
:1014E0003E48006808433D490860FFF70DFB06468B
:1014F00006E0FFF709FB801B642801D90320F8BD33
:1015000036480068FF21013108400028F1D03248F8
:10151000006A0321090208400546002D2DD06068AD
:101520000840A84229D02C48006A884305462A482A
:10153000006A012109040843274908620846006A35
:101540000121090488432449086208460562E80726
:10155000C00F002811D0FFF7D7FA064607E0FFF7C3
:10156000D3FA801B1E49884201D90320C7E71A48D5
:10157000006A022108400028F1D01748006A0321C0
:10158000090288436168084313490862012F05D1A5
:101590000846C069090488430F49C86100BF207824
:1015A000C007C00F002807D00B48006B80088000E0
:1015B000A1680843084908632021206808402028C2
:1015C00007D10548006B10218843E16808430249B0
:1015D0000863002093E70000001002400070004004
:1015E0008813000070B504460D46002C01D101207F
:1015F00070BD52480068C007C00FA8420ED24F48C5
:1016000000684008400028434C49086008460068CC
:10161000C007C00FA84201D00120E9E702212068DD
:101620000840022814D1042120680840042807D16A
:1016300043484068072109028843401840494860F0
:101640003F484068F0218843A16808433C4948600E
:101650002078C007C00F00283BD06068012808D15F
:1016600037480068012149040840002815D10120AD
:10167000BEE76068022808D13148006801214906A8
:101680000840002809D10120B2E72D480068022156
:101690000840002801D10120AAE7294840688008B5
:1016A00080006168084326494860FFF72DFA064626
:1016B00007E0FFF729FA801B2249884201D903205D
:1016C00096E71F4840680C210840616889008842FD
:1016D000EFD11A480068C007C00FA8420ED91748BA
:1016E0000068400840002843144908600846006824
:1016F000C007C00FA84201D0012079E7042120686B
:101700000840042808D10E48406807210902884390
:10171000E16808430A49486000F01AF80849496836
:10172000F02211400909084A515CC8400749086085
:101730000320FFF75BFE00205AE700000020024074
:101740000010024088130000D83D00084C00002023
:10175000F8B50024002500270026002000901D4831
:1017600044680C20204000282DD0042802D00828EE
:1017700028D102E01848009028E00F208004204083
:10178000800C16490E5C1348C06A0007000F14490C
:101790000D5C0120000420400121090488420AD187
:1017A0002A4600230C481946FEF70CFD314602F08C
:1017B000BDF9074604E00B48314602F0B7F9074689
:1017C000009703E000BF0448009000BF00BF0098EE
:1017D000F8BD00000010024000127A00B83D000879
:1017E000C83D000800093D00FEB50446002C01D1AB
:1017F0000120FEBD2078C007C00F002871D0FC4832
:1018000040680C21084004280BD0F9484068084083
:10181000082812D1F648406801210904084088428E
:101820000BD1F348006801214904084000286BD01F
:101830006068002868D10120DBE700BF60680128EC
:1018400007D1EB480068012109040843E849086012
:1018500031E0606800280ED1E548006801210904E4
:101860008843E349086008460068012189048843E9
:10187000DF4908601FE0606805280ED1DC48006879
:10188000012189040843DA490860084600680121FB
:1018900009040843D64908600DE0D54800680121D5
:1018A00009048843D2490860084600680121890478
:1018B0008843CF49086000BF6068002812D0FFF756
:1018C00023F9054606E0FFF71FF9401B642801D9FC
:1018D00003208EE7C648006801214904084000281B
:1018E000F1D011E0FFF710F9054606E0FFF70CF91B
:1018F000401B642801D903207BE7BD480068012113
:10190000490408400028F1D102212068084002283B
:1019100061D1B74840680C21084000280BD0B4487A
:101920004068084008281BD1B148406801210904DB
:101930000840002814D1AE48006802210840002861
:1019400004D0E068012801D0012052E7A8480068CF
:10195000F82188432169C9000843A54908603AE095
:10196000E068002820D0A248006801210843A0496F
:101970000860FFF7C9F8054606E0FFF7C5F8401B09
:10198000022801D9032034E7994800680221084061
:101990000028F2D096480068F82188432169C900E0
:1019A00008439349086016E09148006840084000E9
:1019B0008F490860FFF7A8F8054606E0FFF7A4F88E
:1019C000401B022801D9032013E78948006802213F
:1019D00008400028F2D1082120680840082831D1A9
:1019E000E069002817D08248406A012108438049F5
:1019F0004862FFF789F8054606E0FFF785F8401BC7
:101A0000022801D90320F4E67948406A02210840FF
:101A10000028F2D016E07648406A40084000744939
:101A20004862FFF771F8054606E0FFF76DF8401BC6
:101A3000022801D90320DCE66D48406A02210840F3
:101A40000028F2D1042120680840042873D1002026
:101A500001906748C0698906084000280ED100BF80
:101A60006348C06908436249C8610846C0690904FF
:101A70000840009000BF00BF012001905D48006851
:101A8000FF2101310840002816D15A480068084358
:101A900058490860FFF738F8054606E0FFF734F8C4
:101AA000401B642801D90320A3E652480068FF21A7
:101AB000013108400028F1D000BFA068012806D1FC
:101AC0004B48006A01210843494908622BE0A0689D
:101AD00000280CD14648006A40084000444908628A
:101AE0000846006A04218843414908621BE0A06857
:101AF00005280CD13E48006A042108433C4908628D
:101B00000846006A01210843394908620BE0384859
:101B1000006A40084000364908620846006A04210D
:101B200088433349086200BFA068002813D0FEF73D
:101B3000EBFF054608E02BE0FEF7E6FF401B2E49D1
:101B4000884201D9032054E62948006A022108404E
:101B50000028F1D011E0FEF7D7FF054607E0FEF7B9
:101B6000D3FF401B2449884201D9032041E6204885
:101B7000006A022108400028F1D10198012806D10D
:101B80001B48C0690121090788431949C86100BF82
:101B9000102120680840102860D1606901282DD1EB
:101BA0001348406B04210843114948630846406BC1
:101BB000012108430E494863FEF7A6FF054606E0EB
:101BC000FEF7A2FF401B022801D9032011E60848B6
:101BD000406B022108400028F2D00548406BF821F4
:101BE0008843A169C90008430149486336E0000001
:101BF0000010024000700040881300006069401D22
:101C000000280FD15A48406B042188435849486343
:101C10000846406BF8218843A169C900084354492C
:101C200048631BE05248406B042108435049486315
:101C30000846406B400840004863FEF765FF0546D4
:101C400006E0FEF761FF401B022801D90320D0E522
:101C50004748406B022108400028F2D1206A002842
:101C60004FD0434840680C210840082864D0206ABF
:101C7000022847D13E4800680121090688433C49B3
:101C80000860FEF741FF054606E0FEF73DFF401BFA
:101C9000022801D90320ACE5354800680121490636
:101CA00008400028F1D100BF3148C06A0009000196
:101CB000E16A08432E49C862616AA06A08432C4958
:101CC00049683D221204914308432949486000BFF6
:101CD0000846006801210906084325490860FEF707
:101CE00013FF054606E0FEF70FFF401B022801D94F
:101CF00003207EE51E4800680121490608400028AF
:101D0000F1D033E01A4800680121090688431849D8
:101D10000860FEF7F9FE054606E0FEF7F5FE401BFB
:101D2000022801D9032064E5114800680121490611
:101D300008400028F1D119E0206A012800D158E5B7
:101D40000B484668C76A012000043040616A884237
:101D50000AD13907090FE06A814205D10F208004BA
:101D60003040A16A884201D0012042E5002040E5D0
:101D70000010024070B504462546681E0949884295
:101D800001D901200CE0681E074948610321081FA2
:101D900001F0F2FE0020044988610720086100205C
:101DA00070BD0000FFFFFF0000E000E030B502461C
:101DB0000B4600BF3C20805C012801D1022030BDD1
:101DC00001253C20855400BF02253D208554106824
:101DD00044681068816870252046A8430446186846
:101DE0000443106844600D4D1068A84203D00C4DA8
:101DF0001068A84207D180250846A84301465868C4
:101E000001431068816001253D20855400BF0025F5
:101E10003C20855400BF0020D1E70000002C014089
:101E20000004004010B50446002C01D1012010BD73
:101E30003D20005D002805D100213C2001552046B1
:101E400000F022F802213D200155211D206801F0FB
:101E500087FC01214620015500BF3E2001553F204F
:101E60000155402001554120015500BF00BF4220CF
:101E7000015543200155442001554520015500BF1F
:101E80003D2001550020D2E708B5094A016891427A
:101E90000DD100BF0749C96902221143054AD1612A
:101EA0001146C96902221140009100BF00BF08BD60
:101EB0000004004000100240F8B504460D46002022
:101EC000009000BF3C20005D012801D10220F8BD38
:101ED00001213C20015500BF02213D200155206811
:101EE00086687721304688430646FF21090230463E
:101EF00088430646206886602868502834D00CDC69
:101F0000202851D004DC00284CD0102852D14AE0BF
:101F100030284AD040284DD13AE060282ED0702891
:101F200007D001210903401A02D0401A42D10DE026
:101F300043E0EB686A68A968206801F072FC2068D9
:101F40008668772006432068866036E0EB686A681A
:101F5000A968206801F065FC206880680121890378
:101F600008432168886028E0EA686968206801F011
:101F7000ABFD5021206801F062FC1EE0EA68696850
:101F8000206801F0BAFD6021206801F058FC14E0DF
:101F9000EA686968206801F097FD4021206801F037
:101FA0004EFC0AE000BF00BF00BF2968206801F0B6
:101FB00046FC02E00120009000BF00BF01213D204F
:101FC000015500BF00213C20015500BF00987EE76D
:101FD00010B586B00446142101A8FEF7D3F91149C3
:101FE000206888421CD100BF0F484069491308434C
:101FF0000D494861084640690121490408400090A4
:1020000000BF00BF402001900220029000200390FA
:1020100004900120059001A90920C006FEF776FC76
:1020200006B010BD0004004000100240F8B50446A0
:102030000D461646002700BF3C20005D012801D157
:102040000220F8BD01213C20015500BF002E06D022
:10205000042E1BD0082E33D00C2E62D147E0294627
:10206000206801F0F9FB2068806908210843216895
:10207000886120688069042188432168886120681C
:10208000806929690843216888614CE029462068F5
:1020900001F030FC206880690121C90208432168F1
:1020A00088612068806901218902884321688861EC
:1020B000206880692969090208432168886132E043
:1020C0002946206801F06EFC2068C0690821084399
:1020D0002168C8612068C069042188432168C861FB
:1020E0002068C069296908432168C8611BE0294646
:1020F000206801F0ADFC2068C0690121C9020843D5
:102100002168C8612068C06901218902884321686B
:10211000C8612068C0692969090208432168C8614B
:1021200001E0012700BF00BF00BF00213C20015596
:1021300000BF384685E710B50446002C01D10120C8
:1021400010BD3D20005D002805D100213C20015537
:10215000204600F022F802213D200155211D206873
:1021600001F0FEFA01214620015500BF3E20015535
:102170003F200155402001554120015500BF00BFBF
:102180004220015543200155442001554520015569
:1021900000BF3D2001550020D2E7704770B50446CE
:1021A0000D46002D02D13E20005D0BE0042D02D132
:1021B0003F20005D06E0082D02D14020005D01E0D7
:1021C0004120005D012801D0012070BD002D03D108
:1021D00002213E2001550EE0042D03D102213F20B3
:1021E000015508E0082D03D102214020015502E0ED
:1021F00002214120015501222946206801F000FBFF
:102200001A492068884207D019492068884203D0BB
:1022100018492068884201D1012000E000200028F0
:1022200006D02068406C0121C90308432168486436
:102230000E492068884203D00F49206888420CD19B
:10224000206880684607760F062E0CD0206800684C
:10225000012108432168086005E020680068012129
:102260000843216808600020AFE70000002C01400F
:1022700000440140004801400004004000BFFEE768
:1022800001688969022211404908002902D0002111
:102290000268916201688969C907C90F012251402A
:1022A0005140002904D10168896911430268916194
:1022B00070470000F7B584B004460E460020039036
:1022C0002068876900250698029010203840102861
:1022D00054D12168C8613DE0701C00283AD0FEF757
:1022E00013FC0299401AB04201D8002E32D1206866
:1022F000406801218903084001904220005D009060
:102300002068806949000840C00B00280ED04910A1
:10231000019888420AD00098202807D02068406899
:10232000084321684860FEF7EFFB02900AE0FEF7E1
:10233000EBFB0299401A192804D9202005430120FB
:10234000039006E0206880692021084040090028A9
:10235000EDD000BF20688069202108404009002896
:1023600002D103980028B7D00398002802D120207A
:102370002168C86104200543012003902068876913
:10238000FF2001303840FF210131884206D1012071
:10239000054300022168C8610120039001208002EA
:1023A000384001218902884206D108200543C00136
:1023B0002168C861012003900120400238400121BA
:1023C0004902884206D10220054300022168C86103
:1023D000012003900398002815D02046FFF750FFF6
:1023E000206840680949084021684860606C2843BB
:1023F000606420214120015500214220015500BF89
:102400004020015500BF039807B0F0BD00E800FE72
:10241000FFB581B0044615461E460A9F1B48F2B21E
:10242000002300902046029900F072F839462046B9
:102430000B9A00F06CF9002802D0012005B0F0BD25
:10244000012E03D1E8B22168886211E0FF2000026A
:102450002840001221688862394620460B9A00F015
:1024600056F9002801D00120E8E7E8B22168886227
:102470000B983B46002240210090204600F066F871
:10248000002801D00120D9E70020D7E700200080F4
:10249000FFB581B0044615461E460A9F1B48F2B29E
:1024A000C30200902046029900F032F839462046D7
:1024B0000B9A00F02CF9002802D0012005B0F0BDE5
:1024C000012E03D1E8B22168886211E0FF200002EA
:1024D0002840001221688862394620460B9A00F095
:1024E00016F9002801D00120E8E7E8B221688862E7
:1024F0000B983B46002280210090204600F026F8F1
:10250000002801D00120D9E70020D7E70020008073
:10251000F8B5069C8D05AD0D1604FF273F043E401F
:1025200035431D4325436D006D08009505686E68B1
:10253000650D0127BF023D40034F3D43AE43009D63
:102540002E4305686E60F8BDFF63FF03F8B50446CF
:102550000D4617461E462CE031462046069AFFF7E8
:10256000A9FE002801D00120F8BD701C002820D051
:10257000FEF7CAFA0699401AB04201D8002E18D1C7
:10258000206880692840A84201D1012000E0002095
:10259000B8420ED1606C202108436064412001558F
:1025A00000214220015500BF4020015500BF0120FD
:1025B000DAE7206880692840A84201D1012000E0C4
:1025C0000020B842C8D00020CEE70000F8B504468D
:1025D0000E46174600255AE03A4631462046FFF798
:1025E00069FE002800D0012520688069202108406C
:1025F000400900282FD0002D2DD1206880690421AA
:1026000008408008002803D0208D002800D000BF9B
:1026100020688069102108400009002819D0102086
:102620002168C8610420606420202168C861206896
:1026300040681C490840216848602021412001551C
:1026400000214220015500BF4020015500BF012557
:1026500001E000206064FEF757FAC01BB04201D8C9
:10266000002E14D1002D12D1206880690421084069
:10267000800800280BD1606C202108436064412051
:10268000015500BF00214020015500BF01252068F1
:102690008069042108408008002801D1002D9BD0CA
:1026A0002846F8BD00E800FE70B504460D46164603
:1026B00024E0324629462046FFF7FCFD002801D0E1
:1026C000012070BDFEF720FA801BA84201D8002D22
:1026D00014D12068806920210840400900280DD1CC
:1026E000606C08436064412001550021422001557F
:1026F00000BF4020015500BF0120E2E7206880694B
:102700002021084040090028D3D00020D9E770B527
:1027100004460D46164628E0324629462046FFF775
:10272000C9FD002801D0012070BD681C00281CD004
:10273000FEF7EAF9801BA84201D8002D15D12068C8
:10274000806902210840400800280ED1606C2021D9
:10275000084360644120015500214220015500BF1B
:102760004020015500BF0120DEE72068806902217A
:10277000084040080028CFD00020D5E710B590B021
:10278000044610480078002801D010B010BD7D200C
:10279000C000302104AA012300920191029000227E
:1027A000A0210948FEF71CFC002804D00548007849
:1027B000401C04490870302204A92046FDF7CAFCD9
:1027C00000BFE2E7000000205000002010B50446E2
:1027D000012020700220E07060700020A070207145
:1027E000E060A060002125200155FEF78DF92061F1
:1027F000FEF78AF96061074820620020A06100218D
:1028000024200155252001550020A0622C200155CF
:1028100010BD0000E703000000B587B0142102A836
:10282000FDF7B0FD00BF3548406901218905084327
:1028300032494861084640690121890508400190F4
:1028400000BF00BF00BF2D484069491108432B4914
:10285000486108464069012149040840019000BFD1
:1028600000BF00BF2548406949000843234948612B
:1028700008464069012189040840019000BF00BF5B
:10288000002203211E48FEF739F900223F210920CA
:10289000C006FEF733F9002202211A48FEF72EF98E
:1028A000032002900120039000200490059002A9CB
:1028B0001348FEF72BF83F200290012003900020E0
:1028C0000490059002A90920C006FEF71FF8802099
:1028D000029000200390049002A90920C006FEF790
:1028E00015F802200290012003900020049005902A
:1028F00002A90448FEF70AF807B000BD0010024024
:10290000001400480004004810B51348134908603B
:10291000134848600021114881600121C1600021F5
:10292000016141618161C1610162FEF763F90028C3
:1029300001D0FDF7A9FF00210848FEF7EBF80028B9
:1029400001D0FDF7A1FF00210448FEF71AF9002885
:1029500001D0FDF799FF10BD005400405000002049
:102960000E0900207047000000B58DB000200990CE
:102970000A900B900C90079008901C216846FDF778
:1029800001FD2248224908600820486000212048B3
:1029900081607D21C900C160002101618161FFF773
:1029A00041FA002801D0FDF76FFF012000030990D4
:1029B00009A91748FFF780FA002801D0FDF764FF46
:1029C0001348FFF7B8FB002801D0FDF75DFF00209A
:1029D0000790089007A90E48FFF7E8F9002801D0F2
:1029E000FDF752FF602000900020019002900490BB
:1029F000002269460648FFF719FB002801D0FDF7C1
:102A000043FF0348FFF7E4FA0DB000BD00040040A7
:102A1000B400002000BFFEE77047704770B590B06B
:102A20000646302400253022314604A8FDF792FBEB
:102A300021E07D21C900082204A840190123019248
:102A4000029100902A46A0210F48FEF79FFB002824
:102A500004D00E480078401C0C4908700520FDF792
:102A60003FFF082C06DB20460838C4B22846083051
:102A7000C5B200E00024002C03D0044800780028F0
:102A8000D7D010B070BD0000500000200000002022
:102A900010B50446606900286FD02C20005D002826
:102AA0006BD12078002869D0012804D002287CD07E
:102AB00003287BD18FE16078030001F04FF8058295
:102AC00004224060810000220221FE48FEF716F831
:102AD000012211460920C006FEF710F8002202214B
:102AE0000920C006FEF70AF8002204210920C006CA
:102AF000FEF704F8002208210920C006FDF7FEFFBA
:102B00007DE000220221EF48FDF7F8FF00220121BD
:102B10000920C006FDF7F2FF012202210920C006AC
:102B2000FDF7ECFF002204210920C006FDF7E6FFB7
:102B3000002208210920C006FDF7E0FF5FE0002227
:102B40000221E048FDF7DAFF002201210920C0063A
:102B5000FDF7D4FF002202210920C006FDF7CEFFB9
:102B6000012204210920C006FDF7C8FF0022082128
:102B70000920C006FDF7C2FF41E0F2E191E1002229
:102B80000221D048FDF7BAFF002201210920C0062A
:102B9000FDF7B4FF002202210920C006FDF7AEFFB9
:102BA000002204210920C00601E02AE078E1FDF7B7
:102BB000A5FF012208210920C006FDF79FFF1EE0A6
:102BC00000BF00220221BF48FDF798FF002201212B
:102BD0000920C006FDF792FF002202210920C0064D
:102BE000FDF78CFF002204210920C006FDF786FFB7
:102BF000002208210920C006FDF780FF00BF00BFAA
:102C000075E1B148007800287DD12079030000F0FB
:102C1000A5FF057F0422405E7E0000220221A94814
:102C2000FDF76CFF012211460920C006FDF766FF83
:102C3000002202210920C006FDF760FF00220421C6
:102C40000920C006FDF75AFF002208210920C0060E
:102C5000FDF754FF7AE0002202219A48FDF74EFF6B
:102C6000002201210920C006FDF748FF01220221B0
:102C70000920C006FDF742FF002204210920C006FA
:102C8000FDF73CFF002208210920C006FDF736FFB2
:102C90005CE0002202218B48FDF730FF0022012179
:102CA0000920C006FDF72AFF002202210920C006E4
:102CB000FDF724FF012204210920C006FDF71EFFB5
:102CC000002208210920C006FDF718FF3EE000227F
:102CD00002217C48FDF712FF002201210920C006D5
:102CE000FDF70CFF002202210920C006FDF706FFB8
:102CF000002204210920C006FDF700FF012208215F
:102D00000920C00600E02CE0FDF7F8FE1EE000BF41
:102D1000002202216B48FDF7F1FE0022012109206B
:102D2000C006FDF7EBFE002202210920C006FDF7D8
:102D3000E5FE002204210920C006FDF7DFFE002287
:102D400008210920C006FDF7D9FE00BF00BF5E487C
:102D50000078401C5C490870FDF7D6FE5B490860AE
:102D600038E05948007801282AD1584800680028DE
:102D700030D1012202215348FDF7C0FE002201217B
:102D80000920C006FDF7BAFE002202210920C00674
:102D9000FDF7B4FE002204210920C006FDF7AEFEB7
:102DA000002208210920C006FDF7A8FEFDF7ACFEB1
:102DB0004649086044480078401C4349087009E0CF
:102DC00041480078012805DD40480068002801D10D
:102DD0003D4908708BE03C480078002826D100224D
:102DE00002213848FDF78AFE002201210920C00691
:102DF000FDF784FE002202210920C006FDF77EFEB9
:102E0000002204210920C006FDF778FE01220821D6
:102E10000920C006FDF772FE2B480078401C2A49A5
:102E20000870FDF771FE2949086038E026480078EF
:102E300001282AD125480068002830D1002202212B
:102E40002048FDF75BFE002201210920C006FDF7A6
:102E500055FE002202210920C006FDF74FFE002288
:102E600004210920C006FDF749FE0022082109209F
:102E7000C006FDF743FEFDF747FE144908601248FF
:102E80000078401C1049087009E00F4800780128BC
:102E900005DD0E480068002801D10B49087026E0C6
:102EA00000BF012202210748FDF728FE0022012170
:102EB0000920C006FDF722FE002202210920C006DB
:102EC00006E000000004004801000020040000208B
:102ED000FDF714FE002204210920C006FDF70EFEB6
:102EE000002208210920C006FDF708FE00BF00BF30
:102EF000E07800281FD0012802D002281AD10CE067
:102F0000012210210920C006FDF7F8FD0022202132
:102F10000920C006FDF7F2FD1AE001222021092058
:102F2000C006FDF7EBFD002210210920C006FDF7C9
:102F3000E5FD0DE000BF002210210920C006FDF7CD
:102F4000DDFD002220210920C006FDF7D7FD00BFCE
:102F500000BF2520005D012830D102212520015528
:102F60002CE0002201210920C006FDF7C7FD002248
:102F700002210920C006FDF7C1FD0022042109201D
:102F8000C006FDF7BBFD002208210920C006FDF7A1
:102F9000B5FD002202213848FDF7B0FD2C20005D70
:102FA00000280BD1002210210920C006FDF7A6FD44
:102FB000002220210920C006FDF7A0FD2C20005D85
:102FC00000284CD02D480078002804D0012818D0C3
:102FD000022835D135E0012210210920C006FDF775
:102FE0008DFD012220210920C006FDF787FDFDF798
:102FF0008BFD2349086021480078401C1F49087058
:103000002CE0FDF781FD1E490968401AFF21F531CA
:10301000884214D3002210210920C006FDF76EFD5E
:10302000002220210920C006FDF768FDFDF76CFD98
:103030001349086011480078401C104908700DE0E1
:1030400000BFFDF761FD0E490968401AFF21F53107
:10305000884202D300200949087000BF00BFFDF775
:1030600053FD08490968401AFF21F531884202D30F
:1030700000200449086010BD000400480200002040
:1030800008000020040000202521095C00292AD125
:103090002C21095C002926D12421095CC907C90F0C
:1030A00000291DD01049097800290AD1C1780129C9
:1030B00007D10D490978491C0B4A11700221C170D2
:1030C00011E00949097800290DD1C17802290AD1F6
:1030D00005490978491C044A11700121C17002E0B8
:1030E0000021014A117070470D00002010B5044600
:1030F000207801281AD02078032817D00020A4496E
:103100000870A4490870A4490870A060E060A34852
:10311000A3490968486300220121A248FDF7EEFC9B
:10312000002202219F48FDF7E9FC30E1E078012808
:103130007ED19748007800285FD1FDF7E5FCA168B3
:10314000401AE168884233D392480078002830D191
:103150009248934909684863002201219148FDF78C
:10316000CDFCFDF7D1FC904908606078012804D1BE
:103170007D2000018D49086015E06078022804D1A7
:103180007D204001894908600DE06078032804D162
:103190007D2080018549086005E06078042802D11F
:1031A0008348824908607B480078401C7949087050
:1031B0008EE0784800780128FAD1FDF7A5FC7A491D
:1031C0000968401A794909688842F1D37449206A2C
:1031D00009684863012202217248FDF78FFCFDF760
:1031E00093FCA0607348E06000206A49087068485A
:1031F0000078401C664908706AE06548007801283C
:1032000061D1FDF781FCA168401AE16888425FD373
:1032100060480078002832D16048614909684863F5
:10322000002202215F48FDF769FCFDF76DFC00E01C
:1032300052E05D4908606078012804D17D200001DA
:103240005A49086015E06078022804D17D204001C9
:10325000564908600DE06078032804D17D20800184
:103260005249086005E06078042802D150484F496F
:10327000086048480078401C4649087028E04548E6
:103280000078012824D1FDF73FFC47490968401A1E
:103290004649096888421BD34149206A0968486346
:1032A000012211463F48FDF729FCFDF72DFCA060E7
:1032B0004048E06000203749087035480078401CDD
:1032C0003349087004E00020324908703049087022
:1032D0000020314908705AE0E078022857D12E4882
:1032E0000078002831D1002201212E48FDF706FC8C
:1032F000002202212B48FDF701FCFDF705FC2A49BD
:1033000008606078012804D17D2000012749086009
:1033100015E06078022804D17D204001234908602F
:103320000DE06078032804D17D2080011F490860EA
:1033300005E06078042802D11D481C490860164841
:103340000078401C144908701AE0134800780128DE
:1033500016D1FDF7D9FB14490968401A13490968C9
:1033600088420DD30D4820620020A0700122022166
:103370000C48FDF7C3FB08480078401C064908705C
:103380000020A060E060024908700249087010BD8A
:10339000300000203100002032000020E703000050
:1033A000B400002000140048340000203800002041
:1033B000E02E00007011010010B504462520005DCC
:1033C000002873D12C20005D00286FD14848007878
:1033D00000283BD12420005D02210840002835D080
:1033E000022020702079002804D10120207141485A
:1033F000E0611EE02079012804D1022020713E48BE
:10340000E06116E02079022804D1032020713B48B6
:10341000E0610EE02079032804D1042020713848AF
:10342000E06106E02079042803D1012020713148B1
:10343000E061FDF769FBA061FDF766FB31490860BB
:103440002B480078401C2A4908702FE02848007853
:1034500001281DD12420005D02210840002804D14C
:10346000234908702749086020E0FDF74DFB2549F6
:103470000968401A2449884218D30020A061E061FD
:10348000207020711A480078401C194908700DE01E
:1034900017480078022809D12420005D0221084045
:1034A000002803D1124908701649086020780228C4
:1034B0001DD1A069002810D11448007800280CD133
:1034C0000120207000202071FDF71EFB60610F4875
:1034D0000078401C0D49087009E0A069002806D05A
:1034E0000A480078002802D000200849087010BD62
:1034F0000E00002080EE360000DD6D0000BADB001B
:103500000074B70110000020881300000F00002095
:1035100010B50446A078617888426CD036480068BF
:10352000002814D1A0786178884203DA0220334958
:10353000086002E0012031490860FDF7E5FA3049F2
:1035400008602D480068401C2B49086053E02A4859
:10355000006801284FD1FDF7D7FA29490968401AB8
:10356000142819D325480068012807D12549206A65
:10357000884203D2206A401C206209E01F4800688C
:10358000022805D1206A002802D0206A401E20624D
:103590001D49206A096848636078012805D11949E6
:1035A000206A884201D16078A0706078022805D135
:1035B0001649206A884201D16078A070607803289B
:1035C00006D1FF214E31206A884201D16078A07077
:1035D0006078042804D1206A002801D16078A070A6
:1035E000A0786178884206D1002003490860034929
:1035F00008600349086010BD280000202C0000204E
:1036000024000020E7030000B40000209A0200001C
:103610002521095C002960D12C21095C00295CD19D
:103620002E490978002910D12421095C0422114077
:1036300000290AD029490978491C284A117001211A
:10364000417001700021017147E024490978002987
:1036500011D12421095C0822114000290BD01F49F7
:103660000978491C1D4A1170022141700121017025
:103670000021017131E019490978002911D1242173
:10368000095C2022114000290BD014490978491CFB
:10369000124A117003214170012101700021017152
:1036A0001BE00E490978002914D12421095C40222D
:1036B000114000290ED0017803290BD00749097861
:1036C000491C064A1170042141700121017000213A
:1036D000017102E00021014A117070470C000020C6
:1036E00010B5FDF767FE10BD00B595B0302109A8F3
:1036F000FCF748FE00200590069007900890019086
:103700000290039004900A20099001200C90102050
:103710000D90012010900020119009A8FEF764F888
:10372000002801D0FDF7B0F8072005900020069092
:1037300007900890002105A8FDF754FF002801D04C
:10374000FDF7A2F8202001900020049001A8FDF7C9
:10375000A1FE002801D0FDF797F815B000BD704715
:1037600010B50268214B984202D0214B984205D1F6
:1037700070241346A3431A464B681A431B4B9842C6
:103780000BD01B4B984208D01A4B984205D01A4BCD
:10379000984202D0194B984206D1032424021346C2
:1037A000A3431A46CB681A4380241346A3434C69AB
:1037B00023431A4602608B68C3620B6883620B4B1B
:1037C000984205D00C4B984202D00C4B984201D144
:1037D0000B690363012343610369DB07DB0F002BE4
:1037E00003D003695B085B00036110BD002C01403E
:1037F0000004004000200040004401400048014017
:1038000070B5CD06ED0E0124AC402346046A9C43FE
:103810000462046ACE06F60E1546B5402C430462D7
:1038200070BD70B50C468168FF2636020D46B54363
:1038300029461D02154325432943816070BD10B5FB
:103840000A46816870240B46A34319460723134395
:103850001943816010BD000070B5026A056A6D08E9
:103860006D0005624368846970262546B5432C4681
:10387000A408A4000D682C4302261546B5432A4629
:103880008D682A43184DA84200D107E0174DA84281
:1038900000D103E0164DA8420AD100BF0826154604
:1038A000B5432A46CD682A4304261546B5432A4621
:1038B0000D4DA84205D00D4DA84202D00C4DA84296
:1038C0000CD1FF2601361D46B5432B4676001D461A
:1038D000B5432B464D692B438D692B43436084616F
:1038E0004D684563026270BD002C014000440140F8
:1038F0000048014070B5026A056A1026B5430562AA
:1039000043688469072636032546B5432C460326BB
:1039100036022546B5432C460D682D022C43202641
:103920001546B5432A468D682D012A431A4DA842F3
:1039300000D107E0194DA84200D100BF184DA842A0
:103940000BD10AE080261546B5432A46CD682D01E5
:103950002A4340261546B5432A460F4DA84205D0B6
:103960000E4DA84202D00E4DA8420ED10126B6023D
:103970001D46B5432B4676001D46B5432B464D6983
:10398000AD002B438D69AD002B43436084614D68CE
:103990008563026270BD0000002C014000440140BC
:1039A0000048014070B5026A056AFF260136B5433A
:1039B00005624368C46970262546B5432C46A408B1
:1039C000A4000D682C43012676021546B5432A460D
:1039D0008D682D022A431B4DA84200D107E01A4DE5
:1039E000A84200D100BF194DA8420CD10BE001261E
:1039F000F6021546B5432A46CD682D022A437610B5
:103A00001546B5432A460F4DA84205D00E4DA84293
:103A100002D00E4DA8420ED1012636031D46B543F5
:103A20002B4676001D46B5432B464D692D012B4391
:103A30008D692D012B434360C4614D68C5630262EB
:103A400070BD0000002C01400044014000480140CE
:103A500070B5036A056A01263603B54305624468FA
:103A6000C269072636031546B5432A4603263602A1
:103A70001546B5432A460D682D022A4301267603D2
:103A80001D46B5432B468D682D032B430B4DA84295
:103A900005D00B4DA84202D00A4DA84207D10126FD
:103AA000B6032546B5432C464D69AD012C43446011
:103AB000C2614D680564036270BD0000002C0140C6
:103AC000004401400048014070B50B461446026AAC
:103AD000056A6D086D0005628169F0260D46B543E3
:103AE0002946250129430A261546B5432A46154687
:103AF0001D432A468161026270BD70B50B461446B3
:103B0000026A056A1026B543056281690F263603ED
:103B10000D46B543294625032943A0261546B5433E
:103B20002A461D012A438161026270BDF8B582B246
:103B30008BB2040C0D0C10465843002126465E4300
:103B4000370C36048019794116466E43370C36041B
:103B50008019794126466E438919F8BD30B4744600
:103B6000641E2578641CAB4204D3635D5B00E318DC
:103B700030BC18471D46F8E710B5002819DB1A4A73
:103B800003231B02D21883089B00D2588307DC0E44
:103B9000FF23A3409A438B071B0E8407E40EA34028
:103BA0001A43114B032424021B198408A4001A5140
:103BB00018E00E4A03071B0F083B9B089B00D258D6
:103BC0008307DC0EFF23A3409A438B071B0E840759
:103BD000E40EA3401A43054B0407240F083CA40835
:103BE000A4001A5110BD000000E100E01CED00E04F
:103BF00008B5262000F09CF800906846007841083F
:103C00004900491C00916846007802218843811CC4
:103C100000916846007804218843011D00916846A0
:103C200000780821884341180091684600781021E7
:103C30008843411800916846007820218843411844
:103C400000916846007840218843411800916846F9
:103C50000078802188434118009168460178262029
:103C600000F086F808BD0000FDF7B0FBFFF73CFD53
:103C7000FEF7D2FDFEF748FEFEF774FEFEF774FE77
:103C80006420FCF72DFEFCF763FC6420FCF728FEA3
:103C900000212448FEF782FA2348FEF76FFD2348EF
:103CA0000078002803D02048FEF790FD15E01E485C
:103CB000007803280BDC1C484078042807DC1A48ED
:103CC000C078022803DC18480079042805DD16486E
:103CD000FEF77CFD1448FEF7A1FE1348006A114967
:103CE000096848631DE01048FCF7D1FD0E48FCF759
:103CF000C5FC0D48FFF78CFC0B48FFF75DFB0A483D
:103D0000FFF7C2F90848FFF7F1F90748FFF700FC91
:103D10000548FEF7BDFE0448FCF774FD0248FCF7B9
:103D20002DFDE0E7B4000020FC0000200000002092
:103D30003EB5044601946420012301AA502100905D
:103D40000A48FDF783F8002801D0FCF79DFD6420A8
:103D5000012302AA512100900448FCF7C1FF00286A
:103D600001D0FCF791FD6846007A3EBD500000206E
:103D700013B50446012201A9204600F001F81CBD3C
:103D800070B5C2B004460E461546684604722A460F
:103D900031460930FCF797FA64206B1C02AA5021C7
:103DA00000900448FDF752F8002801D0FCF76CFDA4
:103DB00042B070BD50000020020304050607080948
:103DC0000A0B0C0D0E0F1010010203040506070864
:103DD000090A0B0C0D0E0F1000000000000000007F
:103DE00001020304060708090000000001020304A1
:103DF000103E00080000002050000000F400000801
:103E0000603E00085000002070070000100100080C
:103E100000000000000000000000000000000000A2
:103E20000000000000000000000000000000000092
:103E30000000000000000000000000000000000082
:103E40000000000000000000000000000000000072
:103E500000000000040000000100000000127A00D1
:04000005080000B13E
:00000001FF
